:020000040800F2
:10000000305B002005030008531700080F17000895
:10001000511700086F160008651B0008000000005B
:100020000000000000000000000000004D02000879
:100030007116000800000000A1020008591900080C
:100040001F0300081F0300081F0300081F03000808
:100050001F0300081F0300081F0300081F030008F8
:100060001F0300081F0300081F0300081F030008E8
:100070001F0300081F0300081F0300081F030008D8
:100080001F0300081F0300081F0300081F030008C8
:100090001F0300081F0300081F0300081F030008B8
:1000A0001F0300081F0300081F0300081F030008A8
:1000B0001F0300081F0300081F0300081F03000898
:1000C0001F0300081F0300081F0300081F03000888
:1000D0001F030008C91900081F0300081F030008B8
:1000E0001F0300081F0300081F0300081F03000868
:1000F0001F0300081F0300081F0300081F03000858
:100100001F0300081F0300081F0300081F03000847
:100110001F0300081F0300081F0300081F03000837
:100120001F0300081F0300081F0300081F03000827
:100130001F0300081F0300081F0300081F03000817
:100140001F0300081F0300081F0300081F03000807
:100150001F0300081F0300081F0300081F030008F7
:100160001F0300081F0300081F0300081F030008E7
:100170001F0300081F0300081F0300081F030008D7
:100180001F0300081F03000800F002F800F04FF8FA
:100190000AA090E8000C82448344AAF10107DA45E2
:1001A00001D100F044F8AFF2090EBAE80F0013F0E5
:1001B000010F18BFFB1A43F001031847A43A0000CF
:1001C000C43A0000103A24BF78C878C1FAD8520760
:1001D00024BF30C830C144BF04680C6070470000C1
:1001E0000023002400250026103A28BF78C1FBD840
:1001F000520728BF30C148BF0B607047662903F023
:10020000E384642900F0D680732900F0778400200D
:1002100070471FB503F0D3FC00F0DAFC04000020A7
:10022000002103F03FFCE0601FBD10B510BD00F0E1
:10023000F7FD1146FFF7EDFF01F028FD00F015FE78
:1002400003B4FFF7F2FF03BC01F0ACFC2A4B1968C2
:100250000868B0E8F04F80F30988BFF36F8F4FF064
:10026000000080F311887047000000000648006815
:10027000006880F3088862B661B6BFF34F8FBFF3A2
:100280006F8F00DF00BF00BF08ED00E0DFF80C005B
:10029000016841F470010160704700BF88ED00E023
:1002A000EFF30980BFF36F8F134B1A681EF0100F26
:1002B00008BF20ED108A20E9F04F106008B44FF01D
:1002C000500080F31188BFF34F8FBFF36F8F02F0A0
:1002D000B9FD4FF0000080F3118808BC1968086868
:1002E000B0E8F04F1EF0100F08BFB0EC108A80F39A
:1002F0000988BFF36F8F704744000020EFF305803B
:10030000704700000948804709480047FEE7FEE7BC
:10031000FEE7FEE7FEE7FEE7FEE7FEE7FEE7FEE7B5
:1003200004480549054A064B704700006D1900084E
:100330008901000830550020305B00203057002034
:1003400030570020704700000FB4044910B503AACD
:10035000029800F0D7FB10BC5DF814FB30000020C1
:1003600070B50C460546012A05D02878800600D5D0
:10037000EA69002302E0012305E05B1C934202D2FC
:10038000E05C0028F9D1A869E618C01AA861286ABB
:10039000184428622846AFF3008004E0D5E9012123
:1003A00014F8010B9047B442F8D32846AFF300800D
:1003B00070BD00002DE9F041064600241068752943
:1003C000314616A510D0AFF30080002802DA404273
:1003D00013A507E031688A0701D512A502E0490795
:1003E00004D511A5012401E0AFF3008000210A2209
:1003F00006F1240709E0B0FBF2FCB0FBF2F302FBCC
:100400001C00303078541846491C0028F3D123468C
:100410002A463046BDE8F04100F0E0B80000000098
:100420002D0000002B000000200000002DE9F04707
:100430004FF0000A89460446C0F820A02046E16833
:100440008847002876D0252806D0D4E90121904796
:10045000206A401C2062F1E7E168204600258847B9
:10046000C4F81CA006460027C4F818A02A2E09D0FC
:10047000304601F090FB38B304EB8708303EC8F8F3
:10048000186019E059F8041B204604EB87029161BB
:10049000E1688847012F064618D1E069002820DA74
:1004A00025F020051DE0D8F8180000EB800006EBD1
:1004B00040003038C8F818002046E16888470646F2
:1004C00001F069FB0028EED1012F0AD02E2E08D1B1
:1004D0002046E16888477F1C0646022F45F020052C
:1004E000C4DBA069002803DA404245F00105A061A1
:1004F000E80701D025F01005B6B1A6F14100192892
:1005000002D8203645F400654A463146204625602B
:100510004D46FFF773FE58B1012806D0ED1D25F0BA
:10052000070000F1080989E704E005F1040985E7FF
:1005300030468AE7206ABDE8F087032A40F230801F
:1005400010F0030C00F0158011F8013BBCF1020F14
:10055000624498BF11F801CB00F8013B38BF11F895
:10056000013BA2F1040298BF00F801CB38BF00F8AC
:10057000013B11F0030300F0D782083AC0F0088075
:1005800051F8043B083A51F804CBA0E80810F5E70D
:10059000121D5CBF51F8043B40F8043BAFF30080F0
:1005A000D20724BF11F8013B11F801CB48BF11F865
:1005B000012B24BF00F8013B00F801CB48BF00F835
:1005C000012B704702F0FF0343EA032242EA024292
:1005D00000F0DEBA70477047704770472DE9F0476A
:1005E0000D4699469246044600F1240801688806A3
:1005F00004D5E06921F01001216000E00120A8424B
:1006000001DD471B00E00027A1697A1902EB090010
:10061000081AA0612078C00602D42046AFF30080FB
:10062000002608E0D4E901211AF806009047206A64
:10063000401C761C20624E45F4DB2078C0060AD5AB
:100640002046AFF3008006E0D4E901213020904736
:10065000206A401C2062381EA7F10107F4DC07E085
:10066000D4E9012118F805009047206A401C206257
:10067000281EA5F10105F3DC2046AFF300802078A9
:10068000000602D50220BDE8F0870120FBE7704795
:100690002DE9FF4F0C461E464FF0FF378BB0D2E9D5
:1006A0000001DDF860800A908A46C1F30A5505B959
:1006B0003D46002108464FF00000BAF1000F00F45B
:1006C000400005DA00EB80004FF4400101EA5000E1
:1006D0004FEA9059B9F1010F00DDB9460A9850EA86
:1006E0004A000ED044F61050A5F2FF3545432F14B2
:1006F000B8F1000F1ED07542291E1EDDC9F100029F
:100700001CE0B8F1010F4FF0000001D0302103E0F0
:10071000F24305E02154401CB042FBDB304600228E
:10072000002121540B99C1F80880C1E900200FB0C5
:10073000BDE8F08FBD1B6D1CDEE74A4600DA69425A
:1007400006A800F0CFFA06AB93E8070003AB83E8F6
:10075000070050460A9900F0CFFB8DE80700A0F58E
:1007600000501F3800900398002D09DD42F21F0150
:100770004A46084403A90390684600F02EFE08E0AC
:10078000A0F500504A461F3803A90390684600F0C0
:1007900038FE8DE807000004000C03D04FF0FF3056
:1007A000410800E01046B8F1000F03D0002200928B
:1007B00015461EE0751E05D400F00EFA3032625563
:1007C0006D1EF9D5B3460122084302D000227F1CDA
:1007D00004E02078302801D100227F1E002A0997EA
:1007E00086D01DE0112D07DA00F0F6F9303262559F
:1007F0006D1C50EA0102F5D1084302D00098C8B13F
:100800000EE00021681E05E0235C625C6354225404
:10081000401E491C8142F7DBAB46A81B401E0990D5
:10082000002004F80B000B98099AC0F80880C0E972
:10083000002B7CE711264FF0000859E72DE9F04F17
:1008400088460446D21D22F0070191B0D1E900018B
:10085000CDE90A0101F087F902460B98C00F01D0DB
:100860002D2007E02068810701D52B2002E0202100
:1008700001EAC000032A099001D0072A05DB0346DC
:100880004146204600F0EEF90BE12078800601D5C4
:10089000E06900E00620B8F1650F814606D0B8F1A6
:1008A000660F18D0B8F1670F70D131E00020B9F1B0
:1008B000110F009001DB112301E009F101030AAAE5
:1008C00001A90CA8FFF7E4FEDDE90C70002609F190
:1008D0000105834647E001204B4600904FF000475A
:1008E0000AAA01A90CA8FFF7D3FEDDE90DB00C9907
:1008F0005D46002610B909F101000D18B9EB05009D
:1009000003D4C0F1FF3609F10105A5EB09002BE086
:10091000B9F1010F01DA4FF001090020B9F1110F0F
:100920000090484601DD112300E003460AAA01A910
:100930000CA8FFF7ADFEDDE90C704D46002683469E
:10094000207800070AD4AB4500DA5D4601A8012DE6
:1009500004DD411911F8011C302907D04F4502DA96
:1009600017F1040F04DA012082460FE06D1EEEE756
:10097000002F02DCED1B3E4403E0781CA84200DDA2
:100980007D1CB81B00F1010A4FF0004720780007DA
:1009900003D4AA4501DB4FF0FF3A0021B7F1004F25
:1009A0000DF143088DF8431024D002202B23002F93
:1009B00001DA7F422D230A21021EA0F1010000DC92
:1009C0005FB197FBF1FC97FBF1F201FB1C7C174632
:1009D0000CF1300C08F801CDEEE7A8F1010003702E
:1009E0002188090501D5452100E06521A0F1010814
:1009F00000F8011C09980FA9A1EB0807FF1D00B121
:100A00000120411901EBEA70A1693844081A401E1F
:100A1000A0612078C00602D42046AFF30080099878
:100A200028B1D4E901219047206A401C2062207837
:100A3000C00622D52046AFF300801EE0002E04DB66
:100A4000B34502DD01A8805D00E03020D4E901213A
:100A50009047206A401C2062761CAAF101005FEAE0
:100A6000000A0AD100F0B4F8C0680168405CD4E91B
:100A700001219047206A401C2062281EA5F1010533
:100A8000DCDC07E0D4E9012118F8010B9047206A6B
:100A9000401C2062381EA7F10107F3DC2046AFF3AB
:100AA0000080032011B043E601694A1C0261087806
:100AB000704700B58FB0CDE901310021059105499E
:100AC0007944CDE9031011466846FFF7AFFC0FB03B
:100AD00000BD0000E5FFFFFF10B5436913B1AFF3A0
:100AE000008001E0FFF73CFC012010BD127800F10E
:100AF00024010A7000224A700122EDE711684FF0CC
:100B0000FF32E9E7074B70B50D467B44FFF7D1FF95
:100B10000446284600F054F910B14FF0FF3070BD84
:100B2000204670BD2B11000010B5203AC0F00B809C
:100B3000B1E81850203AA0E81850B1E81850A0E8E1
:100B40001850BFF4F5AF5FEA027C24BFB1E818503B
:100B5000A0E8185044BF18C918C0BDE810405FEAAB
:100B6000827C24BF51F8043B40F8043B08BF704727
:100B7000D20728BF31F8023B48BF11F8012B28BF2C
:100B800020F8023B48BF00F8012B70474FF00002ED
:100B90000429C0F0128010F0030C00F01781CCF192
:100BA000040CBCF1020F18BF00F8012BA8BF20F8FD
:100BB000022BA1EB0C0100F009B95FEAC17C24BF54
:100BC00000F8012B00F8012B48BF00F8012B7047FB
:100BD00000487047EC54002030B5B0F10A024FEAEB
:100BE000900E71F100034EEA817EB0EB0E0061EBD6
:100BF00091014FEA101E4EEA017E10EB0E0041EB10
:100C000011114FEA102E4EEA016E10EB0E0041EB6F
:100C100011214FEA104E4EEA014E10EB0E0041EB4F
:100C20001141401841F100014FEAD00040EA417003
:100C30004FEAD10110EB80054FEA810444EA907439
:100C400044EB01046D1944EB0404521BA3414FF023
:100C5000000348BF0A3200D530BD401C41F10001FD
:100C600030BD00002DE9F0411F460446032601680F
:100C7000072A01F4006004DB08B116A505E016A5FB
:100C800003E008B115A500E015A521F010002060D3
:100C9000A069C01EA0610FB1401EA0612046AFF345
:100CA00000804FB1D4E9012138469047206A401CAA
:100CB0002062C01C206206E0206AFAE7D4E9012124
:100CC00015F8010B9047761EF8D22046AFF300804E
:100CD000BDE8F0814E414E006E616E00494E460007
:100CE000696E66002DE9F047814616468AB03348A2
:100CF00078440DC88DE80D0030487844801C03AC62
:100D00000DC884E80D0041F69B300844372190FB64
:100D1000F1F290FBF1F5A5F1800501FB12041B3CFB
:100D200002D56442012000E00020DFF890A0804658
:100D30000027FA44AAF1BE0A0DE0E00709D03246C6
:100D4000684607EB47010AEB810100F05AFB8DE88A
:100D5000070064107F1C002CEFD1184F7F44AC3F7C
:100D600018E0E80714D007EB04100DF1180A90E81A
:100D70000E008AE80E00C068F04201D19819089070
:100D8000324606A903A800F03CFB03AB83E807004A
:100D90006D10641C002DE4D132466946B8F1000F95
:100DA00003A802D000F019FB01E000F02AFBC9E91A
:100DB0000001C9F808200AB0BDE8F087542F0000F0
:100DC000007B00F0800070474FF0000200B5134632
:100DD00094469646203922BFA0E80C50A0E80C505B
:100DE000B1F12001BFF4F7AF090728BFA0E80C500C
:100DF00048BF0CC05DF804EB890028BF40F8042B05
:100E000008BF704748BF20F8022B11F0804F18BF71
:100E100000F8012B7047000000487047CC540020B8
:100E20007546FFF7F9FFAE4605006946534620F0C8
:100E30000700854618B020B5FFF772FABDE82040DC
:100E40004FF000064FF000074FF000084FF0000B86
:100E500021F00701AC46ACE8C009ACE8C009ACE839
:100E6000C009ACE8C0098D4670470446AFF3008066
:100E70002046FFF7E5F900004FF0013C50F8042B45
:100E800051F8043B9A4221D1A2EB0C03934313EA9D
:100E9000CC1317D150F8042B51F8043B9A4215D1CA
:100EA000A2EB0C03934313EACC130BD150F8042BA1
:100EB00051F8043B9A4209D1A2EB0C03934313EA85
:100EC000CC13DBD04FF00000704700BFD01A01BA3E
:100ED000B1FA81F101F0180122FA01F0CB40C1F121
:100EE0002001DBB2C0B2C01A2CFA01F3D11A91432F
:100EF00011EAC311E6D170475FEA400C08BF91F0D8
:100F0000000F4FEA8C234FEAC12243EA51514FEAC6
:100F10001C5018BF00F5F0404FEA300018BF41F0F8
:100F200000415FEA6C5C00F02980BCF1FF3F08BF24
:100F300040F080407047130C06BF12044FF0100CB5
:100F40004FF0000C130E04BF12020CF1080C130F2B
:100F500004BF12010CF1040C930F04BF92000CF1BA
:100F6000020CD30F04BF52000CF1010C11464FF0DC
:100F70000002A0F11F00A0EB0C00704711F0004F21
:100F800008BF704731F000413FF4D5AF0B0C06BFEE
:100F900009044FF0100C4FF0000C0B0E04BF0902B7
:100FA0000CF1080C0B0F04BF09010CF1040C8B0FA2
:100FB00004BF89000CF1020CCB0F04BF49000CF1F7
:100FC000010CCCF12003A0EB0C0022FA03F302FA8F
:100FD0000CF241EA030100F10100704720F07F4C60
:100FE00080EA030023F07F47ACEB070303F57C5353
:100FF00000F0004003F1FF032DE980494FEA154B53
:1010000009B44FEA144325EA0B4E24EA03480FF2D1
:10101000042606EB132749083E785FEA320203FBF9
:101020000667C7F5000707FB06F64FEA54374FEA95
:10103000D64606F1020607FB066CCCF1005C4FEACF
:101040001C472CEA074C07FB06F40CFB06F504EBE7
:1010500015464FEA961634BF00204FF000404FEA85
:10106000D13706FB07FC4FEA1C4C0CFB0BF7D21BDD
:1010700003FB0CF761EB07010CFB0EF7B0EB07402D
:1010800072EB17420CFB08F734BFA2EB0742B2EB3E
:10109000074261EB17414FEA0C444FEA910706FB08
:1010A00007FC4FEA1C4C0CFB0BF7B0EBC74072EB94
:1010B000573203FB0CF734BFA2EBC742B2EBC74277
:1010C00061EB57310CFB0EF7B0EBC70072EB5772B8
:1010D0000CFB08F734BFA2EBC702B2EBC70261EB0F
:1010E0005771039F4FEA816141EA921104EBCC04EE
:1010F0004FEAD1374FEA826206FB07FC42EA9012C0
:101100004FEA80604FEA1C4C0CFB0BF7D21B03FB31
:101110000CF761EB07010CFB0EF7B0EB074072EB2D
:1011200017420CFB08F734BFA2EB0742B2EB0742B1
:1011300061EB17414FEA8C554FEA910704EB9C2471
:1011400006FB07FC4FEA1C4C0CFB0BF7B0EBC7404F
:1011500072EB573203FB0CF734BFA2EBC742B2EB82
:10116000C74261EB57310CFB0EF7B0EBC70072EBD7
:1011700057720CFB08F734BFA2EBC702B2EBC702F1
:1011800061EB577115EB4C254FEA816141EA9211F1
:101190004FEA82624FEAD13742EA901206FB07FC1F
:1011A00044F100044FEA80604FEA1C4C0CFB0BF743
:1011B000D21B03FB0CF761EB07010CFB0EF7B0EB46
:1011C000074072EB17420CFB08F734BFA2EB074253
:1011D000B2EB074261EB174115EB1C154FEA813169
:1011E00041EA92414FEA823242EA90424FEA80302D
:1011F0004FEA0C7644F1000448EA03434EEA0B48F8
:101200004FF0000EB2EB080C71EB030724BF6246EF
:1012100039464EEB0E0E4FF0000B0018524149417B
:101220004BEB0B0BB2EB080C71EB03077BF1000BE4
:1012300024BF624639464EEB0E0E4FF0000B0018ED
:10124000524149414BEB0B0BB2EB080C71EB03071E
:101250007BF1000B24BF624639464EEB0E0E51EA7D
:10126000020718BF46F0010616EB0E7655F1000294
:1012700054F1000103D5BDE88901BDE80088BDE84F
:101280008901BDE80048B619524141EB0101A3F1C3
:101290000103704780807F7E7D7C7B7A79787776CA
:1012A00076757473727171706F6E6E6D6C6C6B6A43
:1012B0006A696868676666656464636362616160E1
:1012C000605F5F5E5E5D5D5C5C5B5B5A5A5959585E
:1012D00058575756565555555454535352525251C8
:1012E000515050504F4F4F4E4E4D4D4D4C4C4C4B1E
:1012F0004B4B4A4A4A494949484848474747474665
:1013000046464545454444444443434343424242A0
:1013100042414141002B26D4770021D01CB54FEA31
:10132000370703B44FF010004FF010014FF00000EA
:101330000FBCBDE810400BF1010BBBF1010F08BF62
:101340005FEA170722BF12F1010211F101014FF00C
:10135000004143F1000300F0004043EA0000704701
:10136000F9D35708DAE746EA064613F1400F4FEA89
:1013700016461FDD13F1200FDFBF16430A4600217A
:1013800020335B42C8D0C3F1200746EA064602FA82
:1013900007F74FEA164646EA0706C3F1200722FA86
:1013A00003F201FA07F721FA03F14FF0000342EAD2
:1013B0000702B1E746EA020646EA06464FEA164643
:1013C00046EA0106BCBF46EA0646360C4FF000036B
:1013D0004FF000024FF000019EE72DE9C048934610
:1013E00030B491E8380007C831EA400C48BF34EA0D
:1013F000430C03D5FFF7F2FDFFF78CFFF0BCBDE80F
:1014000000882DE9C048934630B491E8380007C8F9
:1014100010F0804F08BF13F0804F03D100F005F8A3
:10142000FFF778FFF0BCBDE8008820F07F4780EA36
:10143000030023F07F4C07EB0C03A3F57C5300F073
:101440000040A3F1FE0392F0000F00F0B38095F08E
:10145000000F00F077802DE901494FEA11404FEA73
:10146000144621EA004800FB06FC24EA064708FB74
:1014700006F607FB08F800FB07F718EB06484CEBED
:10148000164C4FEA124B18EB07484FEA15464CEB47
:10149000174022EA0B4E0BFB06FC25EA06470EFB23
:1014A00006F607FB0EFE0BFB07F71EEB064E4CEB9A
:1014B000164C4FF000061EEB074E4CEB174B18EB8B
:1014C0000B0840F1000018EB0E0B58EB000840F140
:1014D00000008F1A4FF000013CBFC943661B14BFC8
:1014E000B5EB040C00213CBFC943F61B4FEA17447F
:1014F0004EEA8E0E27EA04454FEA1C4704FB0762BA
:101500002CEA074C05FB07F70CFB05F604FB0CFC6B
:1015100016EB074642EB174216EB0C4642EB1C4219
:101520001BEB060658EB0202414146EA9E0601D536
:10153000BDE80189B619524141EB0101A3F1010354
:10154000BDE801894FEA14454FEA114724EA0546F0
:1015500021EA074C05FB07F406FB07F70CFB06F135
:1015600005FB0CFC11EB074144EB17444FEA124713
:1015700011EB0C4144EB1C4422EA074C05FB07F23B
:1015800006FB07F70CFB06F605FB0CFC16EB074603
:1015900042EB174216EB0C4642EB1C456A1854F11D
:1015A000000148BF7047B619524141EB0101A3F158
:1015B0000103704795F0000F37D04FEA11424FEA10
:1015C000144721EA024624EA074C02FB07F106FB16
:1015D00007F70CFB06F402FB0CFC14EB074441EB91
:1015E00017414FEA154714EB0C4441EB1C4125EA27
:1015F000074C02FB07F506FB07F70CFB06F602FBA0
:101600000CFC16EB074645EB174516EB0C4645EB75
:101610001C42121951F1000148BF7047B6195241DE
:1016200041EB0101A3F1010370474FEA14454FEA72
:10163000114724EA054621EA074C05FB07F106FBA2
:1016400007F70CFB06F24FF0000605FB0CFC12EB53
:10165000074241EB174112EB0C4251EB1C4148BFD2
:101660007047921841EB0101A3F101037047FEE7B7
:101670007047F0B5002201274FF0030C0B6807FA02
:1016800002F52B40AB422CD1066853000CFA03F450
:10169000A64306600E79D0F800E09E4046EA0E06AA
:1016A00006600E79012E01D0022E12D18668A64363
:1016B00086604E79D0F808E09E4046EA0E068660C5
:1016C0004668AE43466045688E799640B6B235436B
:1016D0004560C568A543C560CC799C40C3681C4380
:1016E000C460521C102AC9D3F0BD4B07DB0E9A40D0
:1016F000C90810B500EB8100016A0F249C40A1438A
:101700000162016A1143016210BD01837047FEE767
:101710007CB50121202000F059F801208DF804004B
:1017200000228DF8062003218DF80510074D4FF497
:10173000C0648DF80700009469462846FFF799FFBA
:1017400021462846FFF7E1FF7CBD0000001402405F
:10175000FEE7704730B50F23C27801780125FAB152
:10176000144A126801F1E02102F4E062C2F5E0627D
:10177000C2F30722C2F10404D3404278A240847825
:101780001C401443220181F80024007800F01F015E
:101790008D404009800000F1E020C0F8005130BDCC
:1017A00001F01F0085404809800000F1E020C0F8EA
:1017B000805130BD0CED00E0024908430249086049
:1017C000704700000000FA050CED00E0044A002913
:1017D000116801D0014300E08143116070470000AF
:1017E00030380240044A0029116801D0014300E06A
:1017F00081431160704700004438024070B5204BAF
:101800001968204C11F00C0104D06610042903D093
:10181000082903D004601BE0066019E0184A121F73
:101820001168C1F38055116801F03F0115B1B6FB95
:10183000F1F101E0B4FBF1F114681268C4F388140B
:101840006143C2F30142521C5200B1FBF2F101604C
:1018500019680F2202EA11110B4A545C0168E14039
:1018600041601C68072505EA9424145D21FA04F4FC
:1018700084601B6805EA5333D25CD140C16070BDFF
:10188000083802400024F400340000200CB5002287
:10189000274900920192086840F4803008604FF4B4
:1018A000A043086800F4003001900098401C0090AC
:1018B000019810B900989842F3D10868800334D594
:1018C000012001901A484030026842F080520260C4
:1018D0001848026842F44042026015480830026825
:1018E0000260026842F400420260026842F4A052C0
:1018F0000260031F104A1A600A6842F080720A6090
:101900000A689201FCD50D4940F205720A6001682F
:1019100021F003010160016841F0020101600168EA
:10192000C1F381010229FAD10CBD01920CBD000066
:10193000003802400070004008544007003C02405C
:101940004FF0E0210428086903D020F0040008616A
:10195000704740F00400FAE710B501F047FE012897
:1019600003D0BDE8104001F035BB10BD124810B5E2
:10197000016841F4700101601048016841F0010103
:1019800001600E4A00210832116002680C4B1A40B7
:101990000260031D0B4A1A60026822F48022026072
:1019A00006480C300160FFF771FF03494FF00060FB
:1019B0008039086010BD000088ED00E0003802406A
:1019C000FFFFF6FE1030002470B5154C40F2255193
:1019D000204600F035F800280ED0204600F0BEF872
:1019E000104AC1B21088030406D444044FF0000327
:1019F00006D50A2901D0138070BD40F400400DE0E7
:101A00000D2909D0C0F30D04074D401C80B22955A3
:101A10001080C728EFD870BD40F48040108070BDA2
:101A2000001001402C000020B8000020002981890E
:101A300002D041F4005101E021F40051818170474E
:101A400070B501F01F0501260024C1F3421306FA08
:101A500005F2012B0FD0022B0FD0838A4FEA112100
:101A60000088134206FA01F600EA060001D000B130
:101A70000124204670BD8389F0E7038AEEE710B5A4
:101A8000C1F3421301F01F040121A140012B07D033
:101A9000022B07D01430002A026805D00A4304E064
:101AA0000C30F8E71030F6E78A43026010BD000002
:101AB0007FB50446008A0D46C98820F44050014392
:101AC0002182A08941F20C618843A9882A891143A7
:101AD0006A8902431143A181A08A20F44071A88938
:101AE0000843A0826846FFF789FE1A48844202D064
:101AF0001948844201D1039800E00298A1890904A1
:101B000000EBC00101EB0010296801D5490000E09D
:101B10008900B0FBF1F06422B0FBF2F109010B097E
:101B20006FF018056B4300EB8300A3891D044FF091
:101B3000320306D503EBC000B0FBF2F000F0070063
:101B400005E003EB0010B0FBF2F000F00F000843DB
:101B500020817FBD00100140001401408088C0F347
:101B600008007047FEE703B401984100009850EA6E
:101B7000C12018BF04204A0D18BF40F0010040F2F8
:101B8000FF72B2EB515F08BF40F00200012808BFAE
:101B9000052002B0704730380A2801D20120704772
:101BA000002070477047000010B504460420FFF77E
:101BB000C7FE0A484FF47A71047014FB01F1012248
:101BC00042804FF0E020026942F00202026141616E
:101BD000016941F00101016110BD000028000020F1
:101BE0002DED028B0C4C9FED0D8A4FF47A7594ED20
:101BF000000A30EE080A84ED000A10EE100A01F027
:101C00006DFF41EC100B06A053EC102BFEF79CFB74
:101C1000284600F065FFEAE7000000200AD7233CD1
:101C2000666C6F61745F6E756DB5C4D6B5CEAA3A39
:101C300020252E34660D0A0003490A885206FCD579
:101C4000C2B28A807047000000100140054C4FF47A
:101C5000FA75D4F8A402C143C4F8A412284600F0CF
:101C60003FFFF6E7008042420025074C01264FF473
:101C70004877C4F8A852C82000F032FFC4F8A86220
:101C8000384600F02DFFF4E7008042421CB54FF4C7
:101C90004070FFF791FDA820FFF786FF4FF4E13079
:101CA00000F03EFDFFF734FD06490120CDE90001BB
:101CB0000023802204A1074801F06CFC01F070F8B9
:101CC00000201CBD0400002073746172745F746195
:101CD000736B0000952600082DE9F041184E0F4661
:101CE0000446F5683068001D00F070FD38B93068B2
:101CF00090F82C1001208840316981433161601CCB
:101D000007D137B13168BDE8F0410E48091D00F038
:101D100095BD30682C44AC424460316805D2B06B4C
:101D2000BDE8F041091D00F071BD706B091D00F0A8
:101D30006DFDB06A844200D2B462BDE8F08100005B
:101D400044000020900400202DE9F041054600F0F9
:101D500081FD2D4EB068401CB06030682B4F10B133
:101D6000706930B32BE03560B068012827D10024BA
:101D700004EB840007EB800000F03AFD641C202C8B
:101D8000F6D3234800F034FD2148143000F030FD34
:101D90001F48283000F02CFD1D483C3000F028FD85
:101DA0001B48503000F024FD194870631430B063B4
:101DB00005E03068E96AC06A884200D83560706A18
:101DC0000121401C70626864E86A326981401143F5
:101DD000316100EB800007EB8000291D00F02EFD33
:101DE00000F074FD706900280CD03068E96AC06AA0
:101DF000884207D207494FF080500860BFF34F8FE9
:101E0000BFF36F8FBDE8F08144000020C0010020C7
:101E10004004002004ED00E010B500F01BFD0E4C66
:101E20002068A0B90D4800F0E3FC0C48143000F025
:101E3000DFFC0A48E06014302061002210210520F8
:101E400001F0DEF8206010B105A100F015FEBDE83C
:101E5000104000F03BBD000080000020A4040020E2
:101E6000546D72510000000070B5124E124D1CE00E
:101E700000F0E0FF306820B1002401F0E5FCA4B9D7
:101E800001E00124F9E700F0E5FCF068C468201DDA
:101E900000F09CFCA868401EA8606868401E68604E
:101EA00000F014FD204600F052F868680028DFD1E9
:101EB00070BD00007C0400204400002030B4026C9F
:101EC0000B46002A0BD0C1681144C1604468A1428E
:101ED00001D30168C16030BC1846FEF72EBB30BC90
:101EE00070472DE9F041856B174604460026026CC9
:101EF00082B1C7B1E068FEF720FBE168206C091AE7
:101F0000E1602268914202D26168081AE060022F03
:101F100016D017E02068A8B9606801F0EFFB06460C
:101F2000002060600EE0A068FEF707FB216CA0684F
:101F30000844A0606168884204D32068A06001E082
:101F400005B16D1E6D1CA5633046BDE8F08110B56E
:101F50000446006B00F0ECFC2046BDE8104000F0A9
:101F6000E7BC000010484FF4A041420706D0C01D56
:101F70000D4920F00700411AC1F5A0410B4A00238A
:101F80000144C2E900030839103A21F00701116049
:101F90004B600B600B1AC0E9001393604FF00040D8
:101FA0005360D06070470000CC040020B0000020D7
:101FB000074E4FF08054074DFFF756FF3068012859
:101FC000FAD92C60BFF34F8FBFF36F8FF4E7000097
:101FD000C001002004ED00E02DE9F047DDE90984AF
:101FE0000E461746824691009946089DA522206B11
:101FF000FEF7E8FA6FF00301206B01EB870108445C
:1020000020F00707780705D040F22B3219A11EA057
:10201000FEF79AF900202218315C82F83410315C06
:1020200011B1401C1028F6D3002684F84360202DFF
:1020300000D31F25E562C4E91356201D00F0E3FB21
:1020400004F1180000F0DFFB2461C5F12000646298
:10205000A061666584F858604A465146384600F0EB
:1020600003FB2060B8F1000F01D0C8F80040BDE8C4
:10207000F08700002E2E5C4672656552544F535C0B
:102080007461736B732E63004572726F723A2573BD
:102090002C25640D0A00000030B5114900E01146FE
:1020A0000A688242FBD34B685C18844203D14068C3
:1020B00018444860084643681C18944209D1084CEB
:1020C000103C2468A24209D052681A4442600A684F
:1020D00012680260814200D0086030BD0460F9E7F8
:1020E000B000002070B5002441600B4D00619142AA
:1020F00006D8D11A8269914206D2011D286907E0EB
:102100009A4203D2994201D3012403E0011DE868F9
:1021100000F07CFB204670BD8000002010B5044616
:1021200000F098FBA06B20B1002400F0CFFB20460C
:1021300010BD0124F9E700002DE9F34100980F4696
:102140000026846C2CB940F6CE1216A11AA0FEF718
:10215000FBF8A06BE16B884205D340F6CF1211A1CA
:1021600015A0FEF7F1F8A06BE16B88420CD294F950
:1021700045503A4669462046FFF7B3FE0646681CBE
:1021800005D06D1C84F845503046BDE8FC81606A7E
:102190000028F9D004F1240001F00AFB0028F3D054
:1021A0000126F1E72E2E5C4672656552544F535C52
:1021B00071756575652E63004572726F723A25738D
:1021C0002C25640D0A000000F8B5054614480E469B
:1021D000C068C068C468201D00F0F8FAE0690128F2
:1021E00017D1A0692B46411932462046FFF77AFFE6
:1021F00078B100200346014600902A46204601F0AF
:1022000009FC30B907494FF4027201F11800FEF7DA
:102210009BF8616A01B02046BDE8F0400847000025
:10222000800000207839000870B586B02F4E53E04A
:102230000198002806DADDE90301029A9047019827
:10224000002849DB039C606910B1201D00F0BEFA34
:1022500005A800F0A7F8054601980A283CD2DFE857
:1022600000F00505053B273805053B270298A169C5
:10227000034601442A462046FFF734FF00282BD0AE
:10228000616A20468847E069012825D10020009036
:102290000298A169002342181946204601F0BAFBB2
:1022A000D0B940F2213212A117A0FEF74DF813E089
:1022B0000298A06128B94FF44E720DA112A0FEF74A
:1022C00043F8A0692B4641191A462046FFF70AFF3A
:1022D00002E0204600F02CFB00231A4601A93068DA
:1022E00000F0CAFE0028A3D106B070BD8000002017
:1022F0002E2E5C4672656552544F535C74696D6551
:1023000072732E63000000004572726F723A25737B
:102310002C25640D0A000000F8B50D46064600F0B5
:1023200089FD684600F03EF80446009810B101F0BF
:102330008BFAF8BD1148ADB101690968D9B1002522
:10234000311B2A46006800F0A9FB01F07DFA002845
:10235000EFD10B494FF080500860BFF34F8FBFF3B0
:102360006F8FF8BDA642EBD801F06EFA21463046D9
:10237000FFF72AFFF8BD0125E2E7000080000020FA
:1023800004ED00E00648416B096829B1416BC9685A
:10239000C9684968816270474FF0FF31FAE7000071
:1023A0004400002070B5054601F02EF9064E0446A3
:1023B000B068844203D200F009F8012000E0002058
:1023C00028602046B46070BD80000020F8B5184E2B
:1023D00026E0C068C4680568201D00F0F7F9616A4E
:1023E00020468847E06901281AD1A0692844A842FC
:1023F00006D924616060211DF06800F007FA0FE043
:1024000000200346014600902A46204601F002FBC8
:1024100030B9084940F2923201F11800FDF794FFFB
:10242000F06801680029D4D13169C6E90310F8BD0C
:10243000800000207839000808484068401C05D01A
:1024400040F20F1206A111A0FDF77EFF502080F38D
:102450001188BFF34F8FBFF36F8FFEE7940000200A
:102460002E2E5C4672656552544F535C706F7274C9
:1024700061626C655C525644535C41524D5F434D02
:1024800034465C706F72742E630000004572726F88
:10249000723A25732C25640D0A000000084CE06890
:1024A000016839B1002139B10020FFF735FFFFF78E
:1024B000BBFEF4E70121F6E7C0680068F5E700001D
:1024C000800000202DE9F041044600F0C3F994F9A2
:1024D000455004F1240610E0A06C20B100212046F4
:1024E000FFF72AFE04E0606A48B1304601F060F967
:1024F00008B100F091FB6D1E6DB2002DECDC4FF0C9
:10250000FF3684F8456000F0E1F900F0A3F994F992
:10251000445004F1100709E0206948B1384601F041
:1025200047F908B100F078FB6D1E6DB2002DF3DCA9
:1025300084F84460BDE8F04100F0C8B92DE9F041ED
:102540000546002600F076FC324F386808B9FFF7E0
:1025500009FDF86805424FD1002D4DD008356807B8
:102560000BD005F00700C0F108000544680704D04F
:10257000BF2229A132A0FDF7E7FE002D3CD07868EC
:10258000854239D8234910310846046801E02146C4
:1025900004466068A84202D220680028F7D1386853
:1025A000B846844228D00E68206808606068083603
:1025B000401B10280ED96719780704D0EC2216A109
:1025C0001FA0FDF7C1FE6068401B7860384665605B
:1025D000FFF762FD6168D8F804004246401AC8F867
:1025E0000400D8F80830984200D29060D8F80C0067
:1025F00001430020C4E9000101F026F9700705D06D
:102600004FF4967204A10EA0FDF79EFE3046BDE881
:10261000F0810000A00000202E2E5C4672656552FD
:10262000544F535C706F727461626C655C4D656D84
:102630004D616E675C686561705F342E63000000F9
:102640004572726F723A25732C25640D0A000000E2
:102650000449086818B10868026D521C02650868D0
:10266000704700004400002010B5031F4FF0807435
:102670001C601B1F21F001011960191F044B0B6026
:1026800014390A60091F6FF0020244380A6010BD55
:10269000392400081CB500F0DDF814490220CDE90A
:1026A00000010023322212A1144800F073FF0F49E9
:1026B0000320091DCDE900010023322210A1134897
:1026C00000F068FF094904200831CDE9000100232A
:1026D00080220FA1114800F05DFF044808384068CF
:1026E00000F034FABDE81C4000F0F0B8080000200B
:1026F0006C6564305F7461736B0000004D1C0008F2
:102700006C6564315F7461736B000000691C0008C4
:10271000666C6F61745F7461736B0000E11B00088D
:10272000F0B50646012187B00846FFF74FF80121B2
:102730001020FFF757F8234D072209212846FEF7FE
:10274000D4FF07220A212846FEF7CFFF02218DF889
:1027500014108DF815104FF4C060002404908DF80B
:10276000164001278DF8177004A92846FEF781FF4F
:10277000ADF80440ADF80640ADF80840ADF80C40A7
:102780000C20114CADF80A00009669462046FFF770
:102790008FF901212046FFF749F9012240F2255126
:1027A0002046FFF76CF925208DF8180003208DF8DE
:1027B00019008DF81A008DF81B7006A8FEF7CAFFE5
:1027C00007B0F0BD0000024000100140D0E9013226
:1027D00001699A60D0E901235A604A68824201D1B6
:1027E00082684A60002202610868401E08607047E3
:1027F00000F108014FF0FF32C0E90112C160016130
:1028000000210160704700210161704730B50C68FC
:10281000621C02D000F1080202E0026904E01A46DC
:1028200053681D68A542FAD953684B6099608A6065
:10283000516008610168491C016030BD42684A600E
:1028400093688B6093685960916008610168491CC6
:1028500001607047502080F31188BFF34F8FBFF3A2
:102860006F8F09494868401C486001280AD1074811
:10287000006810F0FF0F05D040F2B91204A10FA0BC
:10288000FDF762BD704700009400002004ED00E0F9
:102890002E2E5C4672656552544F535C706F727495
:1028A00061626C655C525644535C41524D5F434DCE
:1028B00034465C706F72742E630000004572726F54
:1028C000723A25732C25640D0A00000010B5084CDF
:1028D000606828B94FF4E07206A111A0FDF734FD3D
:1028E0006068401E606001D180F3118810BD000057
:1028F000940000202E2E5C4672656552544F535C46
:10290000706F727461626C655C525644535C4152E4
:102910004D5F434D34465C706F72742E630000004F
:102920004572726F723A25732C25640D0A000000FF
:1029300070B500282AD0164DA0F108046068E96837
:10294000084205D14FF4A07212A11CA0FDF7FCFCB7
:10295000206828B140F241120EA118A0FDF7F4FC46
:102960006068E968084211D02268002A0ED18843C5
:10297000606000F05FFA606869680844686020463B
:10298000FFF78AFBBDE8704000F05EBF70BD00003D
:10299000A00000202E2E5C4672656552544F535C99
:1029A000706F727461626C655C4D656D4D616E67D0
:1029B0005C686561705F342E630000004572726F61
:1029C000723A25732C25640D0A00000006484FF466
:1029D0007A710068B0FBF1F14FF0E020491E4161CF
:1029E00007210161704700001400002010B5FDF7B9
:1029F00085FC104C10280CD300F1E02090F8F00377
:102A00002178884205D24FF440720BA115A0FDF742
:102A10009BFC18480068A16800F4E060884207D970
:102A2000BDE810404FF4447203A10EA0FDF78CBC2A
:102A300010BD0000940000202E2E5C467265655289
:102A4000544F535C706F727461626C655C52564493
:102A5000535C41524D5F434D34465C706F72742E2F
:102A6000630000004572726F723A25732C25640D65
:102A70000A0000000CED00E010B5074B002253F8EF
:102A800032401CB1521C082AF9D310BD43F8321051
:102A900003EBC201486010BD8001002070B51546EF
:102AA0000E460446FFF7D6FE94F944100020491C58
:102AB00001D184F8440094F94510491C01D184F8EF
:102AC0004500FFF703FFA06B28B92A46314604F101
:102AD000240000F0D1F82046BDE87040FFF7F2BCBA
:102AE00010B5040012D00E49096B29B140F2CF4253
:102AF0000CA111A0FDF728FC00F09CF90021204654
:102B0000FFF7EAF800F0A0FE002807D10E494FF0C9
:102B100080500860BFF34F8FBFF36F8F10BD000070
:102B2000440000202E2E5C4672656552544F535C63
:102B30007461736B732E63004572726F723A257302
:102B40002C25640D0A00000004ED00E070B5044679
:102B5000FFF780FE234D04B92C68201DFFF736FED9
:102B600058B9E06A204A00EB800152F8211021B9DF
:102B700001218140286988432861A06A18B104F1C5
:102B80001800FFF723FE686A401C686228688442C8
:102B900007D1211D1548FFF751FE6868401C686089
:102BA00007E0A868401EA8602046FFF7D0F9FFF7AD
:102BB000E9FBFFF78BFE6869002812D02868844281
:102BC0000FD1286B28B140F2654209A10DA0FDF795
:102BD000BBFB10494FF080500860BFF34F8FBFF32D
:102BE0006F8F70BD44000020C00100207C040020D5
:102BF0002E2E5C4672656552544F535C7461736B44
:102C0000732E63004572726F723A25732C25640D22
:102C10000A00000004ED00E001490120C86170478E
:102C20004400002070B50D46040005D140F6063280
:102C300007A10CA0FDF788FB0E480168204618315B
:102C4000FFF7E4FD2846BDE870400121FFF744B8D6
:102C50002E2E5C4672656552544F535C7461736BE3
:102C6000732E63004572726F723A25732C25640DC2
:102C70000A0000004400002070B514460E4605000E
:102C800005D140F6313209A10DA0FDF75DFB1048DA
:102C9000016828461831FFF7D1FD0CB14FF0FF361F
:102CA00021463046BDE87040FFF716B82E2E5C4630
:102CB00072656552544F535C7461736B732E63007D
:102CC0004572726F723A25732C25640D0A0000005C
:102CD0004400002070B5040039D01D4DE06A296819
:102CE000C96A884233D2A069002804DB2868C06A18
:102CF000C0F12000A061E06A164E00EB800061691F
:102D000006EB800081421FD1201DFFF75FFD0121EE
:102D100050B9E06A00EB800256F8222022B92A69F5
:102D200001FA00F082432A612868C06AE0622A69D9
:102D300081401143296100EB800006EB8000211DDA
:102D4000BDE87040FFF77ABD2868C06AE06270BDD8
:102D500044000020C001002010B5040005D140F659
:102D6000C13205A109A0FDF7EFFA0C48016A216004
:102D7000C068606010BD00002E2E5C467265655212
:102D8000544F535C7461736B732E63004572726FA2
:102D9000723A25732C25640D0A00000044000020BF
:102DA0001CB517480024CDE900402346822215A116
:102DB000164800F0EFFB012803D100F0F1FD0128D7
:102DC0000AD0401C1BD102B040F28472BDE8104012
:102DD0000FA114A0FDF7B8BA502080F31188BFF3FB
:102DE0004F8FBFF36F8F06484FF0FF312C38816251
:102DF00001214161C460BDE81C4000F061B81CBD08
:102E00007000002049444C4500000000B11F00083C
:102E10002E2E5C4672656552544F535C7461736B21
:102E2000732E63004572726F723A25732C25640D00
:102E30000A0000000248016B491C01637047000052
:102E40004400002070B5134D286B10B10120E861DB
:102E500070BD0020E86128690F4EB0FA80F0C0F123
:102E60001F0000EB800456F8240028B940F6F62233
:102E70000AA10FA0FDF768FA06EB840000F1080232
:102E8000416849684160914201D149684160C86820
:102E9000286070BD44000020C00100202E2E5C463A
:102EA00072656552544F535C7461736B732E63008B
:102EB0004572726F723A25732C25640D0A0000006A
:102EC0001CB5304C20683049884205D140F2591277
:102ED0002EA139A0FDF738FA20682B49491E8842F7
:102EE00005D14FF4AD7229A133A0FDF72DFA364C70
:102EF00020780190FF20207020788DF800009DF848
:102F000000009DF8001000F0F000884205D040F26B
:102F100073121EA128A0FDF717FA9DF800002B4A96
:102F200000F0500010700720906007E09068401E8D
:102F300090609DF8000040008DF800009DF80000B2
:102F40000006F3D4107A000200F4E060906001986B
:102F500020700C482030016841F470010160016864
:102F600041F070410160FFF731FD00205060FDF736
:102F70008DF91748016841F040410160FDF776F98D
:102F800000201CBD00ED00E071C20F412E2E5C46FA
:102F900072656552544F535C706F727461626C65F8
:102FA0005C525644535C41524D5F434D34465C7015
:102FB0006F72742E630000004572726F723A25734F
:102FC0002C25640D0A00000000E400E094000020BD
:102FD00034EF00E010B5502080F31188BFF34F8F1D
:102FE000BFF36F8F00F016FB18B104494FF080500B
:102FF0000860002080F3118810BD000004ED00E09F
:103000002DE9F04117460E46050005D14FF4C47274
:1030100010A115A0FDF798F9BEB105FB06F05430DC
:10302000FFF78CFA04000ED004F154007EB120604A
:10303000C4E90F562046012100F0E0F884F85070F2
:1030400000212046A164BDE8F0810020E7E724606C
:10305000EEE700002E2E5C4672656552544F535CBD
:1030600071756575652E63004572726F723A2573CE
:103070002C25640D0A0000002DE9FF4F83B09B460C
:103080008A4604004FF0000605D140F2DC4251A10F
:1030900055A0FDF759F9BAF1000F07D1206C28B1FE
:1030A00040F2DD424BA150A0FDF74EF900F09EFA30
:1030B00038B9059828B14FF49C6246A14AA0FDF7A3
:1030C00043F94FF000094FF08057DFF82C81FFF7EC
:1030D000C1FBA56B45B351462046E668FEF7EEFE00
:1030E000BBF1000F13D0E660606A50B104F1240018
:1030F00000F05EFB28B1C8F80070BFF34F8FBFF33C
:103100006F8FFFF7E3FB012007B0BDE8F08F6D1E66
:10311000A563206810B9FFF79BFA6060206900285A
:10312000EFD004F11000E3E7059808B11EB106E006
:10313000FFF7CCFB27E06846FFF70EFE0126FFF7FE
:10314000C5FBFFF777FEFFF785FB94F94400401CB1
:1031500001D184F8449094F94500401C01D184F8D1
:103160004590FFF7B3FB05A9684600F0CFF90028AA
:1031700020460AD0FFF7A6F900F066FB2046FEF7CE
:10318000CDFF0028A3D00020BEE7FEF7C7FFD8B1CF
:10319000206830B9FFF75EFB6068FFF79BFDFFF723
:1031A00095FB04F124000599FFF73CFD2046FFF74D
:1031B00089F900F049FB002889D1C8F80070BFF3F5
:1031C0004F8FBFF36F8F82E72046FFF77BF900F048
:1031D0003BFB7CE72E2E5C4672656552544F535C78
:1031E00071756575652E63004572726F723A25734D
:1031F0002C25640D0A00000004ED00E070B50D46BA
:10320000040005D140F21B121CA121A0FDF79CF87F
:10321000FFF720FBD4E90F20216802FB0011616059
:103220000021A1632168A1600A46D4E90F01401E74
:1032300000FB0121E16021464FF0FF3001F8440F0F
:10324000487004F110004DB1FFF7D2FA04F12400E8
:10325000FFF7CEFAFFF73AFB012070BD2169002984
:10326000F8D000F0A5FA0028F4D00D494FF08050B6
:103270000860BFF34F8FBFF36F8FEBE72E2E5C46D6
:1032800072656552544F535C71756575652E6300A8
:103290004572726F723A25732C25640D0A00000086
:1032A00004ED00E02DE9FF4F83B099468B46040002
:1032B0004FF0000605D140F2D92252A156A0FDF7E9
:1032C00043F8BBF1000F07D1206C28B140F2DA229D
:1032D0004CA151A0FDF738F8B9F1020F08D1E06B0D
:1032E000012805D040F2DB2246A14BA0FDF72CF8C7
:1032F00000F07CF938B9059828B140F2DE2241A1EE
:1033000045A0FDF721F84FF0000A4FF08057DFF895
:103310001881FFF79FFAA06BE16B884206D3B9F1E1
:10332000020F03D0059800B316B325E04A4659466C
:103330002046FEF7D6FDA16C21B149462046FEF796
:10334000FBFE05E0616A19B104F1240000F030FAD7
:1033500028B1C8F80070BFF34F8FBFF36F8FFFF72E
:10336000B5FA012007B0BDE8F08FFFF7AFFA21E012
:103370006846FFF7F1FC0126FFF7A8FAFFF75AFDB0
:10338000FFF768FA94F94400401C01D184F844A086
:1033900094F94500401C01D184F845A0FFF796FA46
:1033A00005A9684600F0B2F830B12046FFF78AF868
:1033B00000F04AFA0020D5E7FFF74CFAA06BE16B6A
:1033C000884201D1012500E00025FFF77FFA95B181
:1033D00004F110000599FFF725FC2046FFF772F86D
:1033E00000F032FA002894D1C8F80070BFF34F8F74
:1033F000BFF36F8F8DE72046FFF764F800F024FAE3
:1034000087E700002E2E5C4672656552544F535C70
:1034100071756575652E63004572726F723A25731A
:103420002C25640D0A00000004ED00E02DE9F047B2
:10343000984615468946040005D140F29F322AA1DC
:103440002EA0FCF781FFB9F1000F07D1206C28B145
:103450004FF4687224A129A0FCF776FFB8F1020F9F
:1034600008D1E06B012805D040F2A1321EA123A0B3
:10347000FCF76AFFFFF7BAFA5020EFF3118780F3E9
:103480001188BFF34F8FBFF36F8FA06BE16B884242
:1034900007D3B8F1020F04D0002087F31188BDE8EC
:1034A000F08794F94560424649462046FEF719FDEB
:1034B000701C04D0761C84F845600120EDE7A06CF8
:1034C000012620B141462046FEF736FE06E0606A3E
:1034D0000028F2D004F1240000F06AF90028ECD0B2
:1034E000002DEAD02E60E8E72E2E5C46726565520C
:1034F000544F535C71756575652E63004572726F2C
:10350000723A25732C25640D0A00000070B50D4633
:10351000040005D140F6CB3214A119A0FCF714FF2A
:103520002DB940F6CC3211A115A0FCF70DFFFFF725
:1035300091F9174AD06829684B1C0FD02368126A8A
:10354000934202D0626882420AD96268801A884235
:1035500006D2081A28602046FFF7FEFB002400E090
:103560000124FFF7B3F9204670BD00002E2E5C4603
:1035700072656552544F535C7461736B732E6300B4
:103580004572726F723A25732C25640D0A00000093
:10359000440000202DE9FF5F8346DDE90E87994650
:1035A00016468A469000FEF7C9FF05001AD05C2037
:1035B000FEF7C4FF040012D025630021CDE90241CB
:1035C000CDE900874B46324651465846FEF704FD8A
:1035D0002046FEF7B9FB012004B0BDE8F09F284665
:1035E000FFF7A6F94FF0FF30F6E700000548416904
:1035F00019B1006B18B100207047012070470220FC
:1036000070470000440000200148C0687047000077
:10361000440000202DE9F0412D4F0026386B40B1C9
:10362000B869401CB861F86900B101263046BDE8B0
:10363000F081FD686D1CFD6011D1786B006828B1C8
:1036400040F6D91223A128A0FCF77EFE786BB96B57
:103650007963B863386A401C3862FEF793FEB86A33
:10366000DFF89480854209D3786B006880B1786B6D
:10367000C068C468606885420DD2B8623868C06AA4
:1036800000EB800158F821000128CCD90126CAE7B7
:103690004FF0FF30F1E7201DFFF798F8A06A18B14E
:1036A00004F11800FFF792F8E06A01213A698140BD
:1036B0001143396100EB800108EB8100211DFFF708
:1036C000BDF8E06A3968C96A8842CDD30126CBE7E4
:1036D000440000202E2E5C4672656552544F535CA8
:1036E0007461736B732E63004572726F723A257347
:1036F0002C25640D0A000000C001002070B50400F4
:103700004FF000063CD01F4D2868844205D040F69B
:10371000C7621DA121A0FCF717FE206D28B940F655
:10372000C96219A11DA0FCF70FFE206D401E206587
:10373000E26CE16A914223D010BB201DFFF746F8EE
:103740001A49012250B9E06A00EB800351F8233096
:1037500023B92B6902FA00F083432B61E06CE0622D
:10376000C0F12000A061E06A2B6982401A432A61FF
:1037700000EB800001EB8000211DFFF75FF80126C0
:10378000304670BD440000202E2E5C4672656552A6
:10379000544F535C7461736B732E63004572726F88
:1037A000723A25732C25640D0A000000C001002028
:1037B0002DE9F041C068C4682CB940F6613216A109
:1037C0001AA0FCF7C1FD04F118000746FEF7FEFF42
:1037D0001A4D286B012660B139461948FFF72EF8BB
:1037E000E06A2968C96A884213D90120EE61BDE800
:1037F000F081201DFEF7EAFFE06A2A6906FA00F16F
:10380000114329610F4900EB800001EB8000211D6D
:10381000E4E70020EBE700002E2E5C46726565525F
:10382000544F535C7461736B732E63004572726FF7
:10383000723A25732C25640D0A0000004400002014
:1038400068040020C00100202DE9F0472B4D002422
:103850002746286B28B94FF4FD6229A12DA0FCF75B
:1038600073FDFEF7F7FF286B401E2863286BE8BB4B
:10387000A8682C490126C8B3A1F52A798846D8F84A
:103880000010E9B1D8F80C00C46804F11800FEF784
:103890009DFF201DFEF79AFFE06A2A6906FA00F1F3
:1038A0001143296100EB800109EB8100211DFEF726
:1038B000C5FFE06A2968C96A8842E0D3EE61DEE7A5
:1038C0000CB1FEF75FFDAC693CB1FFF7A3FE00B1A0
:1038D000EE61641EF9D10020A861E86930B1124997
:1038E000012738070860BFF34F8F00E001E0BFF306
:1038F0006F8FFEF7EBFF3846BDE8F08744000020ED
:103900002E2E5C4672656552544F535C7461736B26
:10391000732E63004572726F723A25732C25640D05
:103920000A0000006804002004ED00E02DE9F047E3
:103930000746994616460D462C20DDF820A0FEF7D6
:10394000FDFD040014D0B8464F46D1462DB94FF4C2
:10395000C67209A10EA0FCF7F7FCFEF75DFA04F1B0
:103960001801C4F8008081E8E002201DFEF74BFF3B
:103970002046BDE8F08700002E2E5C467265655239
:10398000544F535C74696D6572732E6300000000C0
:103990004572726F723A25732C25640D0A0000007F
:1039A0001CB50024FEF738FA0C48006868B10B49D2
:1039B0001F20091DCDE9000100234FF4827208A1E8
:1039C0000948FFF7E7FD040005D140F2331207A1D3
:1039D0000CA0FCF7B9FC20461CBD000080000020B4
:1039E000546D7220537663009D2400082E2E5C4691
:1039F00072656552544F535C74696D6572732E63C2
:103A0000000000004572726F723A25732C25640D18
:103A10000A0000002DE9FF47DDF830A099469046E6
:103A20000D4606004FF0000705D14FF4D37212A1E6
:103A300017A0FCF789FC1A4C206880B1CDE900582A
:103A40000296062D11DAFFF7D1FD02284FF0000390
:103A500009D0002269462068FFF724FC074604B01D
:103A60003846BDE8F0875246F4E700234A466946E7
:103A7000FFF7DCFCF2E700002E2E5C467265655213
:103A8000544F535C74696D6572732E6300000000BF
:103A90004572726F723A25732C25640D0A0000007E
:103AA0008000002010B500290AD00878002807D02F
:103AB00005487844FDF7E0F9002801D0002010BD4A
:103AC0000248784410BD0000CE010000C60100008D
:103AD0000808A0F500114FEA3101704743004FEA92
:103AE000D30C4FEA3C0C43401FBF40070CF1605120
:103AF00013F0FE4F70471CF0006F03D100200CF054
:103B0000004170470CF0004343EA507010B540EAA2
:103B1000CC0000F00EF800BF000000924FEA000158
:103B2000FFF7D6BF4FF000414FF00000A1F5002194
:103B300070470EF1020E2EF0030E5EF8044B244285
:103B400004D44FEA4102B2F17F4F11D84FEA40034B
:103B5000B3F17F4F0CD80ED14FEAD07CB2F17F4F3A
:103B60000CEB4C0C0CF1020C08BF4CEBD17C04E0CC
:103B70004FF0080C01E04FEAD17C0CEB4C0324FA27
:103B800003F404F00704B4F1040C06D20EEB840C29
:103B9000BDE810404CF0010C6047DFE80CF007086E
:103BA00002024FF00040A0F5800010BD0846420020
:103BB00018BFD2F1807288BF00F0004010BD4FF0F6
:103BC0004070E1EE100A7047FCF738BE024000007A
:103BD000000000A00000000005400000000000C838
:103BE000000000000C4000000000409C00000000AD
:103BF000194000000020BCBE00000000344000005E
:103C0000BFC91B8E00000004B5400000504BCFD050
:103C10006607E2CF010000006C4100003E8251AA1D
:103C2000DFEEA73401000000D9420000DCB5A0E2BD
:103C30003A301F97FFFFFFFFB4450000FD25A0C8E5
:103C4000E9A3C14FFFFFFFFFFF3F0000000000801E
:103C500000000000FF3F00000000008000000000A6
:103C60009C3C000800000020B8000000C4010008CF
:103C7000543D0008B8000020785A0000E001000818
:103C80001C00000043000000F8FFFFFF0C000000D4
:103C90000E0000000F0000002E00000000000000D9
:103CA0000000000000000000000000000000000014
:103CB000007A030A00000000000000000102030473
:103CC00006070809000000000000000000000000D6
:103CD00000000000010203040102030406070809B2
:103CE00000000000000000000000000000000000D4
:103CF00000000000000000000000000000000000C4
:103D000000000000000000000000000000000000B3
:103D100000000000000000000000000000000000A3
:103D20000000000000000000000000000000000093
:103D300000000000AAAAAAAA0000000000000000DB
:103D40000000000000000000000000000000000073
:043D5000000000006F
:040000050800018965
:00000001FF
