:020000040800F2
:10000000B05E012041030008D75A0008E915000836
:10001000D55A0008550A0008456100080000000094
:10002000000000000000000000000000890200083D
:100030006D0A000800000000DD020008315D0008C4
:100040005B0300085B0300085B0300085B03000818
:100050005B0300085B0300085B0300085B03000808
:100060005B0300085B0300085B0300085B030008F8
:100070005B0300085B0300085B0300085B030008E8
:100080005B0300085B0300085B0300085B030008D8
:100090005B0300085B0300085B0300085B030008C8
:1000A0005B0300085B0300085B0300085B030008B8
:1000B0005B030008A15D0008315E00085B030008D7
:1000C0005B0300085B0300085B0300085B03000898
:1000D0005B030008A95F00085B0300085B030008DE
:1000E0005B0300085B0300085B0300085B03000878
:1000F0005B0300085B0300085B0300085B03000868
:100100005B0300085B0300085B0300085B03000857
:100110005B0300085B0300085B0300085B03000847
:100120005B0300085B0300085B0300085B03000837
:100130005B030008F10B00085B0300085B03000889
:100140005B0300085B0300085B0300085B03000817
:100150005B0300085B0300085B0300085B03000807
:100160005B0300085B0300085B0300085B030008F7
:100170005B0300085B0300085B0300085B030008E7
:100180005B0300085B03000800F002F800F06DF864
:100190000AA090E8000C82448344AAF10107DA45E2
:1001A00001D100F062F8AFF2090EBAE80F0013F0C7
:1001B000010F18BFFB1A43F001031847003C010070
:1001C000203C01000A444FF0000C10F8013B13F0F2
:1001D000070408BF10F8014B1D1108BF10F8015BA0
:1001E000641E05D010F8016B641E01F8016BF9D193
:1001F00013F0080F1EBF10F8014BAD1C0C1B09D1EA
:100200006D1E58BF01F801CBFAD505E014F8016B5B
:1002100001F8016B6D1EF9D59142D6D370470000ED
:100220000023002400250026103A28BF78C1FBD8FF
:10023000520728BF30C148BF0B607047642900F0E7
:100240001181752900F00E81782900F0478163291A
:1002500000F07B83732900F08083002070471FB576
:1002600011F0D0FE1FBD10B510BD00F0C3FB11464C
:10027000FFF7F5FF09F0AEFE00F0E1FB03B4FFF776
:10028000F2FF03BC05F066FF2A4B19680868B0E866
:10029000F04F80F30988BFF36F8F4FF0000080F3B9
:1002A000118870470000000006480068006880F36D
:1002B000088862B661B6BFF34F8FBFF36F8F00DF60
:1002C00000BF00BF08ED00E0DFF80C00016841F45A
:1002D00070010160704700BF88ED00E0EFF3098016
:1002E000BFF36F8F134B1A681EF0100F08BF20ED7D
:1002F000108A20E9F04F106008B44FF0500080F3EE
:100300001188BFF34F8FBFF36F8F10F0FBFE4FF0DC
:10031000000080F3118808BC19680868B0E8F04F45
:100320001EF0100F08BFB0EC108A80F30988BFF3ED
:100330006F8F704788000020EFF305807047000042
:100340000948804709480047FEE7FEE7FEE7FEE769
:10035000FEE7FEE7FEE7FEE7FEE7FEE704480549A5
:10036000054A064B70470000455D000889010008FA
:10037000B0580120B05E0120B05A0120B05A0120CF
:10038000704700000FB4044910B503AA029800F0AA
:10039000E9FA10BC5DF814FB440000200FB41CB552
:1003A000074B06AA7B4469460090059800F0ABFA1B
:1003B0000020694600F0BAFA1CBC5DF814FB00008E
:1003C0008505000070B5044685690068C10601D541
:1003D000302600E02026C00707D070BDD4E90121F7
:1003E00030469047206A401C20626D1EF6D570BDD5
:1003F00070B5044685690078C00707D170BDD4E99F
:10040000012120209047206A401C20626D1EF6D5F5
:1004100070BD70B50C460546012A05D028788006C7
:1004200000D5EA69002302E0012305E05B1C93424A
:1004300002D2E05C0028F9D1A869E618C01AA861C8
:10044000286A184428622846FFF7BCFF04E0D5E973
:10045000012114F8010B9047B442F8D32846FFF766
:10046000C7FF70BD2DE9F0410646002410687529CC
:10047000314616A510D0AFF30080002802DA4042C2
:1004800013A507E031688A0701D512A502E04907E4
:1004900004D511A5012401E0AFF3008000210A2258
:1004A00006F1240709E0B0FBF2FCB0FBF2F302FB1B
:1004B0001C00303078541846491C0028F3D12346DC
:1004C0002A463046BDE8F04100F0BEB90000000009
:1004D0002D0000002B0000002000000070B5044635
:1004E0000D4621461068AFF300802188090502D52A
:1004F0000F4A7A4402E00E4A7A440E32002104F197
:10050000240305E000F00F060009965D5E54491CC7
:100510000028F7D120780023000704D5702D02D0E1
:1005200009B1022311322046BDE8704000F08CB9B9
:100530009E3301002DE9F05F894604464FF0000A22
:10054000DFF874B1FB44C0F820A02046E16888477A
:10055000002874D0252806D0D4E901219047206ACC
:10056000401C2062F1E700265F462046E16888478C
:100570002028054607DB312D05D2781910F8200C0C
:1005800008B10643F1E7B00701D526F00406C4F828
:100590001CA00027C4F818A02A2D09D0284605F071
:1005A000D2FD38B304EB8708303DC8F8185019E085
:1005B00059F8041B204604EB87029161E1688847E3
:1005C000012F054618D1E069002820DA26F0200620
:1005D0001DE0D8F8180000EB800005EB4000303833
:1005E000C8F818002046E1688847054605F0ABFDCD
:1005F0000028EED1012F0AD02E2D08D12046E16827
:1006000088477F1C0546022F46F02006C4DBA06900
:10061000002803DA404246F00106A061F00701D04D
:1006200026F010066C2D0BD0682D09D04C2D39D03A
:100630006A2D35D0742D35D07A2D33D016E038E0C0
:10064000E1682F4620468847B842054609D16C2FFD
:1006500026D04FF48060E16806432046884705466F
:1006600004E06C2F1AD04FF4807006430DB3A5F14F
:100670004100192802D8203546F400664A4629462A
:10068000204626604E46FFF7D9FD80B101280BD0E9
:10069000F61D26F0070000F1080956E74020E4E7C0
:1006A0008020D8E70020D6E706F104094DE7284668
:1006B00052E7206ABDE8F09F7433010040EA01036D
:1006C00010B59B070FD1042A0DD310C808C9121FFB
:1006D0009C42F8D020BA19BA884201D9012010BD35
:1006E0004FF0FF3010BD1AB1D30703D0521C07E002
:1006F000002010BD10F8013B11F8014B1B1B07D166
:1007000010F8013B11F8014B1B1B01D1921EF1D1D6
:10071000184610BD032A40F2308010F0030C00F0A0
:10072000158011F8013BBCF1020F624498BF11F82B
:1007300001CB00F8013B38BF11F8013BA2F10402E4
:1007400098BF00F801CB38BF00F8013B11F003035C
:1007500000F01A81083AC0F0088051F8043B083ACA
:1007600051F804CBA0E80810F5E7121D5CBF51F862
:10077000043B40F8043BAFF30080D20724BF11F8DC
:10078000013B11F801CB48BF11F8012B24BF00F841
:10079000013B00F801CB48BF00F8012B704702F085
:1007A000FF0343EA032242EA024200F002B84FF09C
:1007B00000020429C0F0128010F0030C00F01B802E
:1007C000CCF1040CBCF1020F18BF00F8012BA8BF3C
:1007D00020F8022BA1EB0C0100F00DB85FEAC17C00
:1007E00024BF00F8012B00F8012B48BF00F8012BB3
:1007F00070474FF0000200B51346944696462039E4
:1008000022BFA0E80C50A0E80C50B1F12001BFF4C9
:10081000F7AF090728BFA0E80C5048BF0CC05DF82F
:1008200004EB890028BF40F8042B08BF704748BF7D
:1008300020F8022B11F0804F18BF00F8012B7047F1
:1008400070477047704770472DE9F0470D4699464D
:100850009246044600F124080168880604D5E06940
:1008600021F01001216000E00120A84201DD471BBA
:1008700000E00027A1697A1902EB0900081AA061BB
:100880002078C00602D42046FFF79CFD002608E031
:10089000D4E901211AF806009047206A401C761C12
:1008A00020624E45F4DB2078C0060AD52046FFF7CB
:1008B00089FD06E0D4E9012130209047206A401CE0
:1008C0002062381EA7F10107F4DC07E0D4E901211A
:1008D00018F805009047206A401C2062281EA5F1E8
:1008E0000105F3DC2046FFF783FD2078000602D5E2
:1008F0000220BDE8F0870120FBE7000001694A1CE7
:1009000002610878704700B58FB0CDE90131002150
:10091000059105497944CDE9031011466846FFF772
:1009200009FE0FB000BD0000E5FFFFFF0A6802F8F6
:10093000010B0A60704710B5436913B1AFF3008033
:1009400001E0FFF766FD012010BD127800F12401DF
:100950000A7000224A700122EDE711684FF0FF3261
:10096000E9E70000074B70B50D467B44FFF7CBFF6E
:100970000446284600F03AF810B14FF0FF3070BD41
:10098000204670BD437E000010B5203AC0F00B80B9
:10099000B1E81850203AA0E81850B1E81850A0E883
:1009A0001850BFF4F5AF5FEA027C24BFB1E81850DD
:1009B000A0E8185044BF18C918C0BDE810405FEA4D
:1009C000827C24BF51F8043B40F8043B08BF7047C9
:1009D000D20728BF31F8023B48BF11F8012B28BFCE
:1009E00020F8023B48BF00F8012B7047007B00F065
:1009F00080007047754600F029F8AE46050069464C
:100A0000534620F00700854618B020B5FFF7A6FC36
:100A1000BDE820404FF000064FF000074FF00008FF
:100A20004FF0000B21F00701AC46ACE8C009ACE880
:100A3000C009ACE8C009ACE8C0098D46704704465F
:100A4000AFF300802046FFF719FC00000048704714
:100A500050580120FEE70000034800220260426077
:100A60005321312005F0B6B9200000207047000066
:100A7000014948617047000000900240044A002983
:100A8000D16901D0014300E08143D161704700008A
:100A90000090024005490028886902D040F0020019
:100AA00001E020F0020088617047000000900240E1
:100AB000F0B5124F00234FF0004C44F2F45E561E86
:100AC000786013E000EB4314C4F800C0C3EBC31517
:100AD00005EB450501EB8505C4E901E5B34203D209
:100AE00004F12005E56000E0E0605B1C9342E9D37F
:100AF0000349C8600348B860F0BD0000480000200A
:100B0000009002402804002005490028886902D08E
:100B100040F4005001E020F400508861704700006C
:100B200000900240F0B50F4C00234FF48017561E82
:100B3000206011E000EB43142760C3EBC31505EB05
:100B4000450501EB8505A560B34203D204F12005FC
:100B5000E56000E0E0605B1C9342EBD30249086172
:100B6000F0BD0000480000200090024002680A43E7
:100B70000260704710B501214C06204604F0F4FFD6
:100B80002046BDE81040002104F0EEBF01B581B061
:100B900001980090002801D0401EFAE70CBD00002B
:100BA0000248816941F480118161704700900240E0
:100BB00001480068806870474800002002680021F2
:100BC000002A08DB0268120405D40268D20502D5A7
:100BD0000068C0F30D41084670470000034900203B
:100BE0000968C90700D0012070470000009002404A
:100BF00010B5094C01E009F0BBF92068FFF7DEFFF2
:100C00000028F8D14020FFF733FFBDE810404FF433
:100C10008030FFF72DBF00004C0000202DE9F0418F
:100C200086B000277F4E04460097019730698846BA
:100C300020F01C0502A804F0C7FF7B4903987B4AFB
:100C40000144914202D245F0080516E07849794AFC
:100C50000144914202D245F00C050EE07649774AF4
:100C60000144914209D3764908447649884202D228
:100C700045F0040501E045F0100535614FF40042F0
:100C80000021404600F06CFA00282DD06E48FFF796
:100C90007DFF2068B0B36D4D01980121401C01908B
:100CA000404600F085F9400702D40198A842F3D3EA
:100CB0000198A84217D04FF4805200214046019776
:100CC00000F04EFA00280FD001980121401C01903D
:100CD000404600F06DF9800602D40198A842F3D393
:100CE0000198A84203D1002006B0BDE8F0811F2181
:100CF0004046019700F05CF9C10604D54FF400614D
:100D0000216201E008E02762400701D5676113E036
:100D10004FF4804060610FE0206A6169C00840EADA
:100D2000510082B20021404600F01AFA0028DBD0C0
:100D30006FF07F40FFF72AFF316845480140D4E952
:100D400001021043E26854F8103F1A4310436268EE
:100D50001043A2681043E26810432269104362699D
:100D60001043A2691043E2691043226A1043626A89
:100D7000104308433060F4E90A010843D4E9021241
:100D8000114308432169084361690843A169084385
:100D9000E16908437060206AB060606AF060B16920
:100DA0004FF641700140D4E90B021043238D626B72
:100DB00042EA03421043A26B1043E26B1043084324
:100DC000B061D4E910010843F061224882692249E8
:100DD0000A40D4E912131943D4E914352B431943BB
:100DE000A36D1943E36D1943236E1943636E1943D1
:100DF000A36E194311438161D4E91B121143626F41
:100E000054F8783F1A431143626841EA8201A268AC
:100E1000114341F400010160016841F0800101606B
:100E2000012061E70080024000D3CEFEC0E1E40073
:100E300040F1E9FD40787D0100796CFC005A6202C6
:100E4000001F0AFA80F0FA02FFFF0F00FFFF040004
:100E50000F8120FF00900240233FDEF8054B8A8877
:100E6000184402640A78D1F8011042EA0121416471
:100E7000704700000080024010B5B0B001214FF073
:100E8000606004F065FEFFF775FE00F0E9F8FFF71B
:100E9000A5FE0128FBD0684600F0FBF80120009079
:100EA00000204FF40071CDE90A1009040790119059
:100EB000CDE920010E90149013900A111590259001
:100EC000269023920420CDE9280180032A908001F6
:100ED0002B9040122C9040002E9000216846FFF786
:100EE0009DFEC4B2012C03D101210348FFF7C6FDCA
:100EF00030B0204610BD0000400001000549002828
:100F0000086802D040F0040001E020F0040008600E
:100F1000704700000080024005490028086802D0A0
:100F200040F0080001E020F0080008607047000071
:100F30000080024010B5094C0020216809F08AFDAC
:100F40000020616809F086FD0020A16809F082FD9B
:100F5000E168BDE81040002009F07CBD2C000020B5
:100F600070B5A021002009F081FD104CA021206067
:100F7000002009F07BFD41F6C45560602946002041
:100F800009F074FDA0602946002009F06FFDE060C3
:100F9000216831B1616821B1A16811B108B10020A7
:100FA00070BDFFF7C7FF012070BD00002C000020BE
:100FB00018B500220092124A13694FF6FF7403F02D
:100FC0001C0304EAC02018434FF4F86303EA8111BC
:100FD000014321F0020040F001001061094900982E
:100FE000401C00901069C00702D000988842F6D3D8
:100FF0000098884201D1002018BD506980B218BD08
:1010000000800240FFFF040070B5134C00231A4615
:1010100021680D68002D0BDA104916464B691B0636
:1010200002D580234B618E6002604260826070BD99
:101030000D682D040AD40D68ED0507D50D68AD05C2
:1010400004D50A68C2F30D438A681B1FCD6825606A
:101050000360C0E9012170BD4C00002000900240F7
:101060000248016841F001010160704700900240B0
:1010700000B50120FFF750FFFFF792FD0120FFF7B9
:101080003DFF0120FFF740FD01205DF804EBFFF775
:1010900001BD012101600021416081604FF4804267
:1010A000C160C0E90412D2108161C0E90712416237
:1010B0008162C1620163416340228163C0E90F1212
:1010C0002022C0E91121C16401654165816580224A
:1010D000C165C0E918128166C16601674167D20423
:1010E0008167C0E91F125210C0E921211311C0E924
:1010F0002331C0F89410C0F89810C0F89C10C0E9D3
:1011000028125212C0F8A8209201C0F8AC20521246
:10111000C0E92C21C0F8B810704700000E4A1168D1
:101120000B68002B01DA00207047C0F30C00486008
:10113000086840F040500860086840F000400860CF
:10114000064843695B0703D50423436100234360DA
:10115000C8681060012070474800002000900240DD
:1011600038B500230093114B1C694FF6FF7504F04E
:101170001C0405EAC02020434FF4F86404EA8111FE
:10118000014341F003005A61186109490098401C6D
:1011900000901869C00702D000988842F6D30098E2
:1011A000884201D1002038BD012038BD00800240B6
:1011B000FFFF04008000A0F1C0400029016802D0B8
:1011C00041F0010101E0024A114001607047000056
:1011D000FEFF0F0010B5D0E901121143D0E903233F
:1011E0001A4311434269114382691143C269114391
:1011F000026A1143426A1143826A1143C26A11436F
:10120000026B114302689200A2F1C0421160816832
:10121000082907D101688900A1F1C0410A6842F09C
:1012200040020A60416BD1E9002342EA03128B6855
:101230008C891B0243EA04431A430B8A42EA035295
:101240000B7D896942EA03620A4301688900A1F1C2
:10125000C0414A60C16AB1F5804F08D000686FF0A4
:1012600070418000A0F1C040C0F8041110BD816B36
:10127000D1E9002342EA03128B680C8A1B0243EA7D
:1012800004531A430B7D896942EA036200680A43EA
:101290008000A0F1C040C0F8042110BD2DE9F04746
:1012A00098B001217A2004F053FC0121084604F093
:1012B00067FC01258DF8045000244FF400408DF8A0
:1012C0000640022600908DF805608DF807506946AB
:1012D000994800F03BF98DF804604FF633708DF8B3
:1012E00006400327DFF854A200908DF805708DF8B2
:1012F00007506946504600F029F98DF804604FF612
:1013000083708DF80640DFF8389200908DF80570F4
:101310008DF807506946484600F018F98DF80460CA
:101320004FF23F008DF80640DFF8188200908DF8EC
:1013300005708DF807506946404600F007F98DF8B2
:1013400004608DF806408DF805708DF8075040F266
:101350003F407D4D00906946284600F0F7F80C228A
:101360000021504600F02EF90C220121504600F0D9
:1013700029F90C220421504600F024F90C22052101
:10138000504600F01FF90C220821504600F01AF9CF
:101390000C220921504600F015F90C220A21504672
:1013A00000F010F90C220B21504600F00BF90C2232
:1013B0001146504600F006F90C220D21504600F06F
:1013C00001F90C220E21504600F0FCF80C220F21EE
:1013D000504600F0F7F80C220021484600F0F2F8E1
:1013E0000C220121484600F0EDF80C220721484666
:1013F00000F0E8F80C220821484600F0E3F80C223F
:101400000921484600F0DEF80C220A21484600F087
:10141000D9F80C220B21484600F0D4F80C221146D2
:10142000484600F0CFF80C220D21484600F0CAF8DB
:101430000C220E21484600F0C5F80C220F21484628
:1014400000F0C0F80C220021404600F0BBF80C224E
:101450000121404600F0B6F80C220221404600F07F
:10146000B1F80C220321404600F0ACF80C22042114
:10147000404600F0A7F80C220521404600F0A2F8F3
:101480000C221146404600F09DF80C220D214046EA
:1014900000F098F80C220E21404600F093F80C2240
:1014A0000F21404600F08EF80C220021284600F063
:1014B00089F80C220121284600F084F80C22022130
:1014C000284600F07FF80C220321284600F07AF825
:1014D0000C220421284600F075F80C22052128462C
:1014E00000F070F80C220A21284600F06BF8082062
:1014F000CDE912401194169404201794CDE902040A
:1015000014941020CDE90440159406940002CDE90E
:101510000A4011A80994CDE90E4008940794109050
:101520000C940D9402A8FFF755FE01210420FFF74B
:1015300041FE18B0BDE8F08700040240000C0240F4
:10154000001002400014024000180240F0B50022D2
:1015500001274FF0030C0B6807FA02F52B40AB4252
:101560002CD1066853000CFA03F4A64306600E79EA
:10157000D0F800E09E4046EA0E0606600E79012E85
:1015800001D0022E12D18668A64386604E79D0F82B
:1015900008E09E4046EA0E0686604668AE43466016
:1015A00045688E799640B6B235434560C568A54317
:1015B000C560CC799C40C3681C43C460521C102A8F
:1015C000C9D3F0BD4B07DB0E9A40C90810B500EB3C
:1015D0008100016A0F249C40A1430162016A11430A
:1015E000016210BD01837047FEE700001CB50121B8
:1015F000112004F0ADFA1C20009000208DF80400AA
:1016000003208DF8050001248DF80740694606483F
:10161000FFF79CFF02208DF80700009469460348FD
:10162000FFF794FF1CBD00000010024000000240C4
:10163000FEB501214D2004F08BFA0121880304F04E
:10164000B7FA012004F008FB8620032500908DF8EE
:10165000055002208DF804000024384E8DF8064015
:101660008DF8074069463046FFF770FF0B220121D5
:101670003046FFF7A7FF0B2202213046FFF7A2FFFB
:101680000B2207213046FFF79DFF32202C4E0090A1
:1016900069463046FFF75AFF0B2201213046FFF71B
:1016A00091FF0B2204213046FFF78CFF0B2205210E
:1016B0003046FFF787FF4FF4D040224E0090694636
:1016C0003046FFF743FF0B2211463046FFF77AFF03
:1016D0000B220D213046FFF775FF0B220E213046FD
:1016E000FFF770FF8DF80550012508208DF8045094
:1016F00000908DF806408DF8074069461248FFF7C4
:1017000025FF124EC6F88C42322006F5237604F0EF
:101710004DFD35603D208DF808008DF809408DF8AD
:101720000A408DF80B5002A804F0D6F9FFF7A4FB8D
:1017300008B10020FEBD0120FEBD000000000240F7
:101740000008024000180240000C024000804142A4
:10175000C0F34511C20AC00200EB4110104480B230
:10176000704700002DE9F043184F064600243888E2
:101770007D884543B888A0F5D041043902D1B879B5
:10178000012808D00021084603F0A6FF04F072F9F2
:101790004FF0D84016E00020B8714FF02A09A7F8A2
:1017A0000A904FF02B08A7F80C80014603F094FF35
:1017B0000120B871A7F80A80A7F80C90E6E7A0F816
:1017C0008060641CAC42FAD3BDE8F0835003002073
:1017D0002DE9F04F4A492A232B24898845F2105AD3
:1017E0004FF4305B4FF4285E4FF448754FF0F00C27
:1017F00049F241394FF4A07745F210364FF4F072B8
:1018000080B13F484FF00108494580F806800780C5
:10181000A0F802C001D0B1423ED12C250581438100
:10182000848157E036484FF00008494580F806802B
:10183000A0F800C0478006D0A1F5D04CBCF1040C44
:1018400001D0B1420CD12C2505814381A1F5D043B3
:101850008481043B01D0B14244D10780428041E001
:10186000514507D1A0F808B0A0F80AE04FF42C5178
:1018700081810EE0A1F5C856633E06D02221018188
:1018800020214181212181812CE02C210181448171
:1018900083810280458025E0A1F5D04CBCF1040C89
:1018A00009D051450BD1A0F808B0A0F80AE04FF4D8
:1018B0002C53838121E02C250581448109E0A1F589
:1018C000C85CBCF1630C12D0222303812123438125
:1018D00020238381A1F5D043043B01D0B14201D143
:1018E00002804780BDE8F04F002003F0F3BD4FF0C9
:1018F0002C0CA0F808C04381848105804280E9E770
:10190000500300202DE9FE4F0026A2EB000882467E
:101910005F1A701E35468946B8F1000F02DD4FF0A0
:10192000010102E003D14FF00001019102E0C8F192
:1019300000080190002F02DD4FF0010002E003D10A
:101940004FF00000009002E0C7F100070090404611
:10195000B84501DD044600E03C46601C4FF0000B3A
:10196000029015E01FFA89F11FFA8AF000F016F8CC
:1019700046443D44A64202DD0199361B8A44A542F5
:1019800002DD00992D1B89440BF101001FFA80FB39
:1019900002998B45E6DDBDE8FE8F000000B503F03F
:1019A0009BFE04F067F803484FF0D8410088A1F887
:1019B000800000BD28000020F0B51C4615460E46EC
:1019C00007460B46FFF79EFF3A4623463146104630
:1019D000FFF798FF23462A4619463846FFF792FF3D
:1019E0002A4623463146BDE8F0401046FFF78ABF3D
:1019F0002DE9FC4F80460024154603200F46A0EB3E
:101A0000450649E0781B81B208EB040A01901FFAF1
:101A10008AF0FFF7C3FF381B81B208EB050900907D
:101A20001FFA89F0FFF7BAFF07EB040B1FFA8BF1DF
:101A30001FFA89F0FFF7B2FF07EB05091FFA89F1DA
:101A40001FFA8AF0FFF7AAFFA8EB040A1FFA89F130
:101A50001FFA8AF0FFF7A2FFA8EB05091FFA8BF126
:101A60001FFA89F0FFF79AFF019881B21FFA8AF0F6
:101A7000FFF794FF009881B21FFA89F0FFF78EFFFD
:101A8000641C002E03DA06EB8406B61D04E0601B1E
:101A900006EB80066D1E0A36AC42B3DDBDE8FC8F56
:101AA0002DE9F043414D91460C460246060AA988AD
:101AB0002846A1F5134340894FEA1428413B16D02C
:101AC000A1F5A643103B12D0B3F5007313D02E46F8
:101AD000A1F5C857B3793688B61A761E633F23D06E
:101AE000A1F5D047043F3AD0012B4DD04DE003F093
:101AF000B5FF304639E003F0B1FF304603F0A2FFF6
:101B00006889401C80B203F0A9FFD0B203F09AFFAD
:101B1000A88903F0A3FF404603F094FFA889401C66
:101B200080B203F09BFF2BE003B9B2B203F096FF43
:101B3000160A304603F086FFD0B203F083FF30462A
:101B400003F080FFD0B203F07DFFA88903F086FF89
:101B5000404603F077FFE0B203F074FF0DE0012B85
:101B600000D1B2B203F07AFF100A03F06BFFD0B2DB
:101B700003F068FFA88903F071FF404603F062FF9D
:101B8000E0B203F05FFF07E0B2B2114603F07CFF62
:101B9000A889214603F078FF4FF0D840298920F822
:101BA0007E1FA0F80290BDE8F083000050030020E3
:101BB0002DE9F843204D1F468046AB88089EA3F5CB
:101BC000D040043802D1A879012807D0A2EB080040
:101BD000401C85B20C464FF0D84929E02B880846B6
:101BE000991A0024AC713A462A24A3EB08036C81AD
:101BF0002B27491E5B1EAF8189B29BB20096FFF76F
:101C0000D7FF0120A8716F81AC81BDE8F883214620
:101C1000404603F061FD03F02DFF0020494603E03C
:101C2000A1F88060401C80B2A842F9D3641CA4B221
:101C3000BC42ECD9E9E70000500300202DE9F04F49
:101C4000A1B0002401217A201F9403F081FF01211B
:101C5000084603F095FF4FF40040009001208DF8F6
:101C600004008DF8064002208DF8050001208DF853
:101C700007006946FE48FFF769FC4CF2337000909C
:101C800002208DF804008DF8064003208DF8050031
:101C900001208DF807006946F648FFF757FC4FF61C
:101CA0008070009002208DF804008DF8064003201B
:101CB0008DF805000120F04D8DF807006946284693
:101CC000FFF744FCA814009002208DF804008DF862
:101CD000064003208DF805000120E84E8DF807002E
:101CE00069463046FFF732FCA814009002208DF8B8
:101CF00004008DF8064003208DF805000120E04F18
:101D00008DF8070069463846FFF720FC0C220021B9
:101D1000D848FFF757FC0C220121D648FFF752FCA8
:101D20000C220421D348FFF74DFC0C220521D14899
:101D3000FFF748FC0C220821CE48FFF743FC0C2299
:101D40000921CC48FFF73EFC0C220A21C948FFF7C5
:101D500039FC0C220E21C748FFF734FC0C220F215E
:101D6000C448FFF72FFC0C2207212846FFF72AFC66
:101D70000C2208212846FFF725FC0C2209212846C1
:101D8000FFF720FC0C220A212846FFF71BFC0C223F
:101D90000B212846FFF716FC0C2211462846FFF7B8
:101DA00011FC0C220D212846FFF70CFC0C220E2101
:101DB0002846FFF707FC0C220F212846FFF702FCFC
:101DC0000C2211463046FFF7FDFB0C221146384627
:101DD000FFF7F8FB0F20CDE911043C20CDE91304F7
:101DE000159409201694CDE917400820CDE9194033
:101DF0001B941C940620CDE902041D941E9410200F
:101E0000CDE9044006940002CDE90A400894079405
:101E10008000CDE90C40099411A8CDE90E4018A826
:101E2000109002A8FFF7D6F901210620FFF7C2F9AA
:101E3000322004F0BBF90121002003F025FE3220FE
:101E400004F0B4F9002003F013FB8E4A4FF0204A4F
:101E50004FF6FF7B908049F2413545F2103645F24E
:101E6000105441F6631846F60407FF2804D358457A
:101E700002D0B0F5134F74D1D32003F0EFFD03F07F
:101E80006CFA908003F069FA908003F066FA0BEA2E
:101E90000020D946908003F060FA91880843908032
:101EA000A8425ED0BF2003F0D9FD03F056FA90801F
:101EB00003F053FA908003F050FA908003F04DFA4B
:101EC00009EA0020908003F048FA91880843908046
:101ED000B84246D0D42003F0C1FD03F03EFA908012
:101EE00003F03BFA908003F038FA09EA0020908072
:101EF00003F033FA918808439080B04231D04FF418
:101F00005A4003F0ABFD03F028FA90804FF45B4099
:101F100003F0A4FD03F021FA09EA002090804FF4B9
:101F20005C4003F09BFD03F018FA91880843908011
:101F3000B0F5004F39D0A04213D0A12003F08EFDA0
:101F400003F00BFA908003F008FA09EA0020908071
:101F500003F003FA91880843A0F5AE4190806139FF
:101F600020D080B2A84205D0B04203D0A04201D018
:101F700040451CD1DAF81C11504621F00F01CAF877
:101F80001C11DAF81C1121F47061CAF81C11DAF87E
:101F90001C1141F00301CAF81C11DAF81C1141F4BC
:101FA000007121E0A2F80480E4E79480E2E7B842FF
:101FB00003D0A0F54541053918D1DAF81C11504677
:101FC00021F00F01CAF81C11DAF81C1121F470611C
:101FD000CAF81C11DAF81C1141F00A01CAF81C11E8
:101FE000DAF81C1141F44061C0F81C119146918847
:101FF00025A0FEF7C7F9B9F80400A8427DD1CF208B
:1020000003F02CFD002003F01DFDC12003F01AFD9C
:10201000302003F017FDED2003F020FD642003F0D5
:1020200011FD032003F00EFD122003F00BFD8120B3
:1020300003F008FDE82003F011FD852003F002FD08
:10204000102003F0FFFC7A2003F0FCFCCB2003F00F
:1020500005FD392003F0F6FC2C2003F0F3FC0020F2
:1020600003F0F0FC342003F0EDFC022014E000004B
:1020700000040240000C0240001002400014024024
:102080000018024050030020204C43442049443AA9
:1020900025780D0A0000000003F0D4FCF72003F0BF
:1020A000DDFC202003F0CEFCEA2003F0D7FC00206A
:1020B00003F0C8FC002003F0C5FCC02003F0CEFCF8
:1020C0001B2003F0BFFCC12003F0C8FC012003F07B
:1020D000B9FCC52003F0C2FC302003F0B3FC302073
:1020E00003F0B0FCC72003F0B9FCB72003F0AAFC52
:1020F000362003F0B3FC482000E0A7E003F0A2FC88
:102100003A2003F0ABFC552003F09CFCB12003F017
:10211000A5FC002003F096FC1A2003F093FCB620E7
:1021200003F09CFC0A2003F08DFCA22003F08AFC43
:10213000F22003F093FC002003F084FC262003F03F
:102140008DFC012003F07EFCE02003F087FC0F20D3
:1021500003F078FC2A2003F075FC282003F072FCC1
:10216000082003F06FFC0E2003F06CFC082003F045
:1021700069FC542003F066FCA92003F063FC4320B3
:1021800003F060FC0A2003F05DFC0F2003F05AFC12
:10219000002003F057FC002003F054FC002003F063
:1021A00051FC002003F04EFCE12003F057FC00201E
:1021B00003F048FC152003F045FC172003F042FC17
:1021C000072003F03FFC112003F03CFC062003F045
:1021D00039FC2B2003F036FC562003F033FC3C2066
:1021E00003F030FC052003F02DFC102003F02AFC46
:1021F0000F2003F027FC3F2003F024FC3F2003F0D6
:1022000021FC0F2003F01EFC2B2003F027FC0020F4
:1022100003F018FC002003F015FC012003F012FC71
:102220003F2003F00FFC2A2003F018FC002003F0ED
:1022300009FC002003F006FC002003F003FCEF2063
:1022400003F000FC112003F009FCA5E0B8427CD1AA
:10225000112003F003FC142003F0A8FFD02003F0AA
:10226000FDFB072003F0EEFB422003F0EBFB1D20FB
:1022700003F0E8FBD12003F0F1FB002003F0E2FBC8
:102280001A2003F0DFFB092003F0DCFBD22003F06F
:10229000E5FB012003F0D6FB222003F0D3FBC02096
:1022A00003F0DCFB102003F0CDFB3B2003F0CAFB66
:1022B000002003F0C7FB022003F0C4FB112003F051
:1022C000C1FBC52003F0CAFB032003F0BBFBC82001
:1022D00003F0C4FB002003F0B5FB252003F0B2FBA4
:1022E000212003F0AFFB052003F0ACFB002003F03E
:1022F000A9FB0A2003F0A6FB652003F0A3FB252021
:1023000003F0A0FB772003F09DFB502003F09AFB25
:102310000F2003F097FB002003F094FBF82003F05C
:102320009DFB012003F08EFBFE2003F097FB0020B5
:1023300003F088FB022003F085FB202003F08EFBD6
:10234000362003F08BFB082000E02BE003F07AFB43
:102350003A2003F083FB552003F074FB2B2003F09D
:102360007DFB002003F06EFB002003F06BFB0120DF
:1023700003F068FB3F2003F065FB2A2003F06EFBAF
:10238000002003F05FFB002003F05CFB012003F062
:1023900059FBDF2003F056FB782003F007FF2920CC
:1023A00001F0FBBEB0427CD1ED2003F057FB0120D1
:1023B00003F048FBFE2003F045FBEE2003F04EFB4C
:1023C000DE2003F03FFB212003F03CFBF12003F073
:1023D00045FB012003F036FBDF2003F03FFB10201C
:1023E00003F030FBC42003F039FB8F2003F02AFBFD
:1023F000C62003F033FB002003F024FBE22003F0AF
:1024000021FBE22003F01EFBE22003F01BFBBF20B8
:1024100003F024FBAA2003F015FBB02003F01EFB01
:102420000D2003F00FFB002003F00CFB0D2003F048
:1024300009FB002003F006FB112003F003FB002042
:1024400003F000FB192003F0FDFA002003F0FAFA74
:10245000212003F0F7FA002003F0F4FA2D2003F016
:10246000F1FA002003F0EEFA3D2003F0EBFA002031
:1024700003F0E8FA5D2003F0E5FA002003F0E2FA49
:102480005D2003F0DFFA002003F0DCFAB12003F056
:10249000E5FA802003F0D6FA002003F0D3FA8B206F
:1024A00000E0FCE303F0CEFA002003F0CBFA962024
:1024B00003F0C8FA002003F0C5FAB22003F0CEFA08
:1024C000002003F0BFFA002003F0BCFA022003F062
:1024D000B9FA002003F0B6FA032003F0B3FA0020A3
:1024E00003F0B0FAB32003F0B9FA002003F0AAFA1F
:1024F000002003F0A7FA002003F0A4FA002003F064
:10250000A1FA002003F09EFA002003F09BFA0020BD
:1025100003F098FA002003F095FA002003F092FAF5
:10252000002003F08FFA002003F08CFA002003F063
:1025300089FA002003F086FA002003F083FA0020D5
:1025400003F080FA002003F07DFA002003F07AFA0D
:10255000002003F077FA002003F074FA002003F063
:1025600071FA002003F06EFA002003F06BFA0020ED
:1025700003F068FA002003F065FAB42003F06EFA65
:102580008B2003F05FFA002003F05CFA962003F042
:1025900059FA002003F056FAA12003F053FA002064
:1025A00003F050FAB52003F059FA022003F04AFA7A
:1025B000002003F047FA032003F044FA002003F060
:1025C00041FA042003F03EFA002003F03BFAB62063
:1025D00003F044FA002003F035FA002003F032FA49
:1025E000B72003F03BFA002003F02CFA002003F0A0
:1025F00029FA3F2003F026FA002003F023FA5E2098
:1026000003F020FA002003F01DFA642003F01AFA08
:10261000002003F017FA8C2003F014FA002003F0D6
:1026200011FAAC2003F00EFA002003F00BFADC20C4
:1026300003F008FA002003F005FA702003F002FA14
:10264000002003F0FFF9902003F0FCF9002003F0D4
:10265000F9F9EB2003F0F6F9002003F0F3F9DC20A0
:1026600003F0F0F9002003F0EDF9B82003F0F6F9DB
:10267000002003F0E7F9002003F0E4F9002003F064
:10268000E1F9002003F0DEF9002003F0DBF900207F
:1026900003F0D8F9002003F0D5F9002003F0D2F9B7
:1026A000BA2003F0DBF9242003F0CCF9002003F07A
:1026B000C9F9002003F0C6F9002003F0C3F9C120D6
:1026C00003F0CCF9202003F0BDF9002003F0BAF9A3
:1026D000542003F0B7F9002003F0B4F9FF2003F011
:1026E000B1F9002003F0AEF9C22003F0B7F90A20D7
:1026F00003F0A8F9002003F0A5F9042003F0A2F9E3
:10270000002003F09FF9C32003F0A8F93C2003F058
:1027100099F9002003F096F93A2003F093F900208C
:1027200003F090F9392003F08DF9002003F08AF9C5
:10273000372003F087F9002003F084F93C2003F0F0
:1027400081F9002003F07EF9362003F07BF90020A8
:1027500003F078F9322003F075F9002003F072F9E4
:102760002F2003F06FF9002003F06CF92C2003F008
:1027700069F9002003F066F9292003F063F90020CD
:1027800003F060F9262003F05DF9002003F05AF908
:10279000242003F057F9002003F054F9242003F01B
:1027A00051F9002003F04EF9232003F04BF90020EB
:1027B00003F048F93C2003F045F9002003F042F90A
:1027C000362003F03FF9002003F03CF9322003F0FB
:1027D00039F9002003F036F92F2003F033F90020F7
:1027E00003F030F92C2003F02DF9002003F02AF932
:1027F000292003F027F9002003F024F9262003F014
:1028000021F9002003F01EF9242003F01BF9002019
:1028100003F018F9242003F015F9002003F012F951
:10282000232003F00FF9002003F00CF9C42003F07B
:1028300015F9622003F006F9002003F003F90520E2
:1028400003F000F9002003F0FDF8842003F0FAF80B
:10285000002003F0F7F8F02003F0F4F8002003F074
:10286000F1F8182003F0EEF8002003F0EBF8A420B4
:1028700003F0E8F8002003F0E5F8182003F0E2F890
:10288000002003F0DFF8502003F0DCF8002003F014
:10289000D9F80C2003F0D6F8002003F0D3F8172065
:1028A00003F0D0F8002003F0CDF8952003F0CAF82B
:1028B000002003F0C7F8F32003F0C4F8002003F071
:1028C000C1F8E62003F0BEF8002003F0BBF8C520F5
:1028D00003F0C4F8322003F0B5F8002003F0B2F89A
:1028E000442003F0AFF8002003F0ACF8652003F0BB
:1028F000A9F8002003F0A6F8762003F0A3F8002042
:1029000003F0A0F8882003F09DF8002003F09AF867
:10291000C62003F0A3F8202003F094F8002003F071
:1029200091F8172003F08EF8002003F08BF80120B7
:1029300003F088F8002003F085F8C72003F08EF834
:10294000002003F07FF8002003F07CF8002003F063
:1029500079F8002003F076F8C82003F07FF8002013
:1029600003F070F8002003F06DF8002003F06AF81F
:10297000002003F067F8C92003F070F8002003F08E
:1029800061F8002003F05EF8002003F05BF80020FF
:1029900003F058F8002003F055F8002003F052F837
:1029A000002003F04FF8002003F04CF8002003F063
:1029B00049F8002003F046F8002003F043F8002017
:1029C00003F040F8002003F03DF8002003F03AF84F
:1029D000002003F037F8002003F034F8E02003F083
:1029E0003DF8162003F02EF8002003F02BF81C20F1
:1029F00003F028F8002003F025F8212003F022F846
:102A0000002003F01FF8362003F01CF8002003F02C
:102A100019F8462003F016F8002003F013F85220AE
:102A200003F010F8002003F00DF8642003F00AF81A
:102A3000002003F007F87A2003F004F8002003F0E8
:102A400001F88B2002F0FEFF002002F0FBFF99202E
:102A500002F0F8FF002002F0F5FFA82002F0F2FFDC
:102A6000002002F0EFFFB92002F0ECFF002002F09E
:102A7000E9FFC42002F0E6FF002002F0E3FFCA20D5
:102A800002F0E0FF002002F0DDFFD22002F0DAFFCA
:102A9000002002F0D7FFD92002F0D4FF002002F07E
:102AA000D1FFE02002F0CEFF002002F0CBFFF320A8
:102AB00002F0C8FF002002F0C5FFE12002F0CEFFC7
:102AC000162002F0BFFF002002F0BCFF1C2002F025
:102AD000B9FF002002F0B6FF222002F0B3FF002071
:102AE00002F0B0FF362002F0ADFF002002F0AAFF96
:102AF000452002F0A7FF002002F0A4FF522002F0C0
:102B0000A1FF002002F09EFF642002F09BFF002046
:102B100002F098FF7A2002F095FF002002F092FF69
:102B20008B2002F08FFF002002F08CFF992002F032
:102B300089FF002002F086FFA82002F083FF00201A
:102B400002F080FFB92002F07DFF002002F07AFF42
:102B5000C42002F077FF002002F074FFCA2002F0C8
:102B600071FF002002F06EFFD22002F06BFF002008
:102B700002F068FFD82002F065FF002002F062FF3B
:102B8000E02002F05FFF002002F05CFFF32002F083
:102B900059FF002002F056FFE22002F05FFF0520FF
:102BA00002F050FF002002F04DFF0B2002F04AFF20
:102BB000002002F047FF1B2002F044FF002002F03B
:102BC00041FF342002F03EFF002002F03BFF442092
:102BD00002F038FF002002F035FF4F2002F032FFF4
:102BE000002002F02FFF612002F02CFF002002F0F5
:102BF00029FF792002F026FF002002F023FF882021
:102C000002F020FF002002F01DFF972002F01AFFC3
:102C1000002002F017FFA62002F014FF002002F0AF
:102C200011FFB72002F00EFF002002F00BFFC220C0
:102C300002F008FF002002F005FFC72002F002FFAB
:102C4000002002F0FFFED12002F0FCFE002002F086
:102C5000F9FED62002F0F6FE002002F0F3FEDD20A1
:102C600002F0F0FE002002F0EDFEF32002F0EAFE9A
:102C7000002002F0E7FEE32002F0F0FE052002F063
:102C8000E1FE002002F0DEFE0A2002F0DBFE002062
:102C900002F0D8FE1C2002F0D5FE002000E0FDE28C
:102CA00002F0D0FE332002F0CDFE002002F0CAFE7A
:102CB000442002F0C7FE002002F0C4FE502002F0C3
:102CC000C1FE002002F0BEFE622002F0BBFE00202A
:102CD00002F0B8FE782002F0B5FE002002F0B2FE4D
:102CE000882002F0AFFE002002F0ACFE972002F038
:102CF000A9FE002002F0A6FEA62002F0A3FE0020FE
:102D000002F0A0FEB72002F09DFE002002F09AFE25
:102D1000C22002F097FE002002F094FEC72002F0CD
:102D200091FE002002F08EFED12002F08BFE0020EA
:102D300002F088FED52002F085FE002002F082FE1F
:102D4000DD2002F07FFE002002F07CFEF32002F086
:102D500079FE002002F076FEE42002F07FFE0120E2
:102D600002F070FE002002F06DFE012002F06AFE0B
:102D7000002002F067FE022002F064FE002002F054
:102D800061FE2A2002F05EFE002002F05BFE3C2085
:102D900002F058FE002002F055FE4B2002F052FED9
:102DA000002002F04FFE5D2002F04CFE002002F0F9
:102DB00049FE742002F046FE002002F043FE84200B
:102DC00002F040FE002002F03DFE932002F03AFEA9
:102DD000002002F037FEA22002F034FE002002F0B4
:102DE00031FEB32002F02EFE002002F02BFEBE20AA
:102DF00002F028FE002002F025FEC42002F022FE90
:102E0000002002F01FFECD2002F01CFE002002F088
:102E100019FED32002F016FE002002F013FEDD2082
:102E200002F010FE002002F00DFEF32002F00AFE78
:102E3000002002F007FEE52002F010FE002002F064
:102E400001FE002002F0FEFD002002F0FBFD00204C
:102E500002F0F8FD022002F0F5FD002002F0F2FD84
:102E6000292002F0EFFD002002F0ECFD3C2002F0F2
:102E7000E9FD002002F0E6FD4B2002F0E3FD00201A
:102E800002F0E0FD5D2002F0DDFD002002F0DAFD41
:102E9000742002F0D7FD002002F0D4FD842002F05F
:102EA000D1FD002002F0CEFD932002F0CBFD0020EA
:102EB00002F0C8FDA22002F0C5FD002002F0C2FD14
:102EC000B32002F0BFFD002002F0BCFDBE2002F0E6
:102ED000B9FD002002F0B6FDC42002F0B3FD0020D1
:102EE00002F0B0FDCD2002F0ADFD002002F0AAFD01
:102EF000D32002F0A7FD002002F0A4FDDC2002F0A8
:102F0000A1FD002002F09EFDF32002F09BFD0020B9
:102F100002F098FDE62002F0A1FD112002F092FDE2
:102F2000002002F08FFD342002F08CFD002002F022
:102F300089FD562002F086FD002002F083FD7620F8
:102F400002F080FD002002F07DFD772002F07AFD86
:102F5000002002F077FD662002F074FD002002F0F0
:102F600071FD882002F06EFD002002F06BFD9920BB
:102F700002F068FD002002F065FDBB2002F062FD5A
:102F8000002002F05FFD992002F05CFD002002F0BD
:102F900059FD662002F056FD002002F053FD552039
:102FA00002F050FD002002F04DFD552002F04AFDD8
:102FB000002002F047FD452002F044FD002002F011
:102FC00041FD432002F03EFD002002F03BFD442085
:102FD00002F038FD002002F035FDE72002F03EFD52
:102FE000322002F02FFD002002F02CFD552002F0CF
:102FF00029FD002002F026FD762002F023FD0020AE
:1030000002F020FD662002F01DFD002002F01AFDF6
:10301000672002F017FD002002F014FD672002F087
:1030200011FD002002F00EFD872002F00BFD0020B4
:1030300002F008FD992002F005FD002002F002FDDB
:10304000BB2002F0FFFC002002F0FCFC992002F003
:10305000F9FC002002F0F6FC772002F0F3FC0020DF
:1030600002F0F0FC442002F0EDFC002002F0EAFC4B
:10307000562002F0E7FC002002F0E4FC232002F0DE
:10308000E1FC002002F0DEFC332002F0DBFC00203B
:1030900002F0D8FC452002F0D5FC002002F0D2FC62
:1030A000E82002F0DBFC002002F0CCFC002002F063
:1030B000C9FC992002F0C6FC002002F0C3FC872066
:1030C00002F0C0FC002002F0BDFC882002F0BAFC37
:1030D000002002F0B7FC772002F0B4FC002002F0E0
:1030E000B1FC662002F0AEFC002002F0ABFC8820B0
:1030F00002F0A8FC002002F0A5FCAA2002F0A2FC2D
:10310000002002F09FFCBB2002F09CFC002002F09B
:1031100099FC992002F096FC002002F093FC6620B6
:1031200002F090FC002002F08DFC552002F08AFC99
:10313000002002F087FC552002F084FC002002F001
:1031400081FC442002F07EFC002002F07BFC442045
:1031500002F078FC002002F075FC552002F072FCB1
:10316000002002F06FFCE92002F078FCAA2002F0B7
:1031700069FC002002F066FC002002F063FC0020E5
:1031800002F060FC002002F069FCAA2002F05AFC68
:10319000CF2002F063FC002002F054FC002002F07B
:1031A00051FC002002F04EFC002002F04BFC0020FD
:1031B00002F048FC002002F045FC002002F042FC36
:1031C000002002F03FFC002002F03CFC002002F056
:1031D00039FC002002F036FC002002F033FC002015
:1031E00002F030FC002002F02DFC002002F02AFC4E
:1031F000002002F027FC002002F024FCF02002F066
:103200002DFC002002F01EFC502002F01BFC0020D0
:1032100002F018FC002002F015FC002002F012FC65
:10322000F32002F01BFC002002F00CFCF92002F05D
:1032300015FC062002F006FC102002F003FC2920F9
:1032400002F000FC002002F0FDFB3A2002F006FC38
:10325000552002F0F7FB112002F000FC642002F080
:10326000A5FF292002F0FAFB352002F0F7FB002031
:1032700002F0E8FB512002F0F1FBFF2002F0E2FB3C
:10328000532002F0EBFB2C2002F0DCFB552002F077
:10329000E5FB822002F0D6FB2C20FCE3A0427DD18E
:1032A0004FF470435521184602F0EEFB4FF2010433
:1032B000AA21204602F0E8FB651C5221284602F0B4
:1032C000E3FBA61C0821304602F0DEFBE71C0121CF
:1032D000384602F0D9FB0D214FF4304002F0D4FB08
:1032E0000D214BF2010002F0CFFB0D214BF2020049
:1032F00002F0CAFB4FF436483421404602F0C4FBCA
:1033000034214BF2016002F0BFFB34214BF202602A
:1033100002F0BAFB4FF431490D21484602F0B4FBEC
:103320004BF2011A0D21504602F0AEFB0D214BF27B
:10333000021002F0A9FB34214FF4374002F0A4FB45
:1033400034214BF2017002F09FFB34214BF20270EA
:1033500002F09AFB00214FF4324002F095FB00216D
:103360004BF2012002F090FB00214BF2022002F010
:103370008BFB24214FF4384002F086FB24214BF6CE
:10338000010002F081FB24214BF6020002F07CFBDD
:1033900001214FF43F4002F077FB00E0FEE30F21F4
:1033A0004FF4334002F070FB0F214BF2013002F07A
:1033B0006BFB0F214BF2023002F066FB34214FF41D
:1033C000394002F061FB34214BF6011002F05CFB46
:1033D00034214BF6021002F057FB08214FF4354020
:1033E00002F052FB08214BF2015002F04DFB082184
:1033F0004BF2025002F048FB03214FF4424002F02E
:1034000043FB24214FF43A4002F03EFB24214BF6CB
:10341000012002F039FB24214BF6022002F034FB9C
:1034200000214FF43C4002F02FFB78214BF6014085
:1034300002F02AFB00214BF6024002F025FB00219E
:103440004FF43D4002F020FB78214BF6015002F092
:103450001BFB00214BF6025002F016FB00214FF43B
:103460003E4002F011FB64214BF6016002F00CFBC0
:1034700000214FF4514002F007FB33214DF20110BF
:1034800002F002FB00214DF2021002F0FDFA34219D
:103490004DF2031002F0F8FA00214DF2041002F090
:1034A000F3FA3A214DF2051002F0EEFA00214DF246
:1034B000061002F0E9FA4A214DF2071002F0E4FA90
:1034C00000214DF2081002F0DFFA5C214DF20910E4
:1034D00002F0DAFA00214DF20A1002F0D5FA812149
:1034E0004DF20B1002F0D0FA00214DF20C1002F058
:1034F000CBFAA6214DF20D1002F0C6FA00214DF2D2
:103500000E1002F0C1FAE5214DF20F1002F0BCFAE4
:1035100001214DF2101002F0B7FA13214DF21110F3
:1035200002F0B2FA01214DF2121002F0ADFA54216C
:103530004DF2131002F0A8FA01214DF2141002F01E
:10354000A3FA82214DF2151002F09EFA01214DF2EC
:10355000161002F099FACA214DF2171002F094FAEF
:1035600002214DF2181002F08FFA00214DF21910CD
:1035700002F08AFA02214DF21A1002F085FA0121B6
:103580004DF21B1002F080FA02214DF21C1002F0E5
:103590007BFA34214DF21D1002F076FA02214DF231
:1035A0001E1002F071FA67214DF21F1002F06CFA42
:1035B00002214DF2201002F067FA84214DF2211011
:1035C00002F062FA02214DF2221002F05DFAA4210B
:1035D0004DF2231002F058FA02214DF2241002F0AD
:1035E00053FAB7214DF2251002F04EFA02214DF2A6
:1035F000261002F049FACF214DF2271002F044FACA
:1036000002214DF2281002F03FFADE214DF229107E
:1036100002F03AFA02214DF22A1002F035FAF221B4
:103620004DF22B1002F030FA02214DF22C1002F074
:103630002BFAFE214DF22D1002F026FA03214DF255
:103640002E1002F021FA10214DF22F1002F01CFA78
:1036500003214DF2301002F017FA33214DF23110F0
:1036600002F012FA03214DF2321002F00DFA6D2130
:103670004DF2331002F008FA00214FF4524002F0EC
:1036800003FA33214DF2012002F0FEF900214DF240
:10369000022002F0F9F934214DF2032002F0F4F98E
:1036A00000214DF2042002F0EFF93A214DF20520FD
:1036B00002F0EAF900214DF2062002F0E5F94A2174
:1036C0004DF2072002F0E0F900214DF2082002F04F
:1036D000DBF95C214DF2092002F0D6F900214DF210
:1036E0000A2002F0D1F981214DF20B2002F0CCF931
:1036F00000214DF20C2002F0C7F9A6214DF20D2059
:1037000002F0C2F900214DF20E2002F0BDF9E521D0
:103710004DF20F2002F0B8F901214DF2102002F015
:10372000B3F913214DF2112002F0AEF901214DF24F
:10373000122002F0A9F954214DF2132002F0A4F94D
:1037400001214DF2142002F09FF982214DF2152043
:1037500002F09AF901214DF2162002F095F9CA21E2
:103760004DF2172002F090F902214DF2182002F0DC
:103770008BF900214DF2192002F086F902214DF259
:103780001A2002F081F901214DF21B2002F07CF990
:1037900002214DF21C2002F077F934214DF21D2058
:1037A00002F072F902214DF21E2002F06DF967213C
:1037B0004DF21F2002F068F902214DF2202002F0A4
:1037C00063F984214DF2212002F05EF902214DF2CD
:1037D000222002F059F9A4214DF2232002F054F9DD
:1037E00002214DF2242002F04FF9B7214DF225209D
:1037F00002F04AF902214DF2262002F045F9CF21CC
:103800004DF2272002F040F902214DF2282002F06B
:103810003BF9DE214DF2292002F036F902214DF26A
:103820002A2002F031F9F2214DF22B2002F02CF97E
:1038300002214DF22C2002F027F9FE214DF22D201D
:1038400002F022F903214DF22E2002F01DF9102181
:103850004DF22F2002F018F903214DF2302002F032
:1038600013F933214DF2312002F00EF903214DF20C
:10387000322002F009F96D214DF2332002F004F9F3
:1038800000214FF4534002F0FFF833214DF2013094
:1038900002F0FAF800214DF2023002F0F5F834217E
:1038A0004DF2033002F0F0F800214DF2043002F046
:1038B000EBF83A214DF2053002F0E6F800214DF226
:1038C000063002F0E1F84A214DF2073002F0DCF850
:1038D00000214DF2083002F0D7F85C214DF209309A
:1038E00002F0D2F800214DF20A3002F0CDF8812129
:1038F0004DF20B3002F0C8F800214DF20C3002F00E
:10390000C3F8A6214DF20D3002F0BEF800214DF2B1
:103910000E3002F0B9F8E5214DF20F3002F0B4F8A4
:1039200001214DF2103002F0AFF813214DF21130A9
:1039300002F0AAF801214DF2123002F0A5F854214C
:103940004DF2133002F0A0F801214DF2143002F0D4
:103950009BF882214DF2153002F096F801214DF2CC
:10396000163002F091F8CA214DF2173002F08CF8AF
:1039700002214DF2183002F087F800214DF2193083
:1039800002F082F802214DF21A3002F07DF8012196
:103990004DF21B3002F078F802214DF21C3002F09B
:1039A00073F834214DF21D3002F06EF802214DF211
:1039B0001E3002F069F867214DF21F3002F064F802
:1039C00002214DF2203002F05FF884214DF22130C7
:1039D00002F05AF802214DF2223002F055F8A421EB
:1039E0004DF2233002F050F802214DF2243002F063
:1039F0004BF8B7214DF2253002F046F802214DF286
:103A0000263002F041F8CF214DF2273002F03CF889
:103A100002214DF2283002F037F8DE214DF2293034
:103A200002F032F802214DF22A3002F02DF8F22194
:103A30004DF22B3002F028F802214DF22C3002F02A
:103A400023F8FE214DF22D3002F01EF803214DF235
:103A50002E3002F019F810214DF22F3002F014F838
:103A600003214DF2303002F00FF833214DF23130A6
:103A700002F00AF803214DF2323002F005F86D2110
:103A80004DF2333002F000F800214FF4544001F0C1
:103A9000FBFF332100E080E34DF2014001F0F4FF31
:103AA00000214DF2024001F0EFFF34214DF20340BE
:103AB00001F0EAFF00214DF2044001F0E5FF3A2158
:103AC0004DF2054001F0E0FF00214DF2064001F00B
:103AD000DBFF4A214DF2074001F0D6FF00214DF2F5
:103AE000084001F0D1FF5C214DF2094001F0CCFF0C
:103AF00000214DF20A4001F0C7FF81214DF20B4039
:103B000001F0C2FF00214DF20C4001F0BDFFA621E3
:103B10004DF20D4001F0B8FF00214DF20E4001F0D2
:103B2000B3FFE5214DF20F4001F0AEFF01214DF250
:103B3000104001F0A9FF13214DF2114001F0A4FF44
:103B400001214DF2124001F09FFF54214DF213402C
:103B500001F09AFF01214DF2144001F095FF8221FE
:103B60004DF2154001F090FF01214DF2164001F099
:103B70008BFFCA214DF2174001F086FF02214DF262
:103B8000184001F081FF00214DF2194001F07CFF47
:103B900002214DF21A4001F077FF00E000E301211D
:103BA0004DF21B4001F070FF02214DF21C4001F06C
:103BB0006BFF34214DF21D4001F066FF02214DF2F2
:103BC0001E4001F061FF67214DF21F4001F05CFFD4
:103BD00002214DF2204001F057FF84214DF2214097
:103BE00001F052FF02214DF2224001F04DFFA421CD
:103BF0004DF2234001F048FF02214DF2244001F034
:103C000043FFB7214DF2254001F03EFF02214DF266
:103C1000264001F039FFCF214DF2274001F034FF5B
:103C200002214DF2284001F02FFFDE214DF2294004
:103C300001F02AFF02214DF22A4001F025FFF22176
:103C40004DF22B4001F020FF02214DF22C4001F0FB
:103C50001BFFFE214DF22D4001F016FF03214DF216
:103C60002E4001F011FF10214DF22F4001F00CFF0A
:103C700003214DF2304001F007FF33214DF2314076
:103C800001F002FF03214DF2324001F0FDFE6D21F3
:103C90004DF2334001F0F8FE00214FF4554001F0A1
:103CA000F3FE33214DF2015001F0EEFE00214DF202
:103CB000025001F0E9FE34214DF2035001F0E4FE20
:103CC00000214DF2045001F0DFFE3A214DF2055083
:103CD00001F0DAFE00214DF2065001F0D5FE4A2136
:103CE0004DF2075001F0D0FE00214DF2085001F0D6
:103CF000CBFE5C214DF2095001F0C6FE00214DF2D1
:103D00000A5001F0C1FE81214DF20B5001F0BCFEC2
:103D100000214DF20C5001F0B7FEA6214DF20D50DE
:103D200001F0B2FE00214DF20E5001F0ADFEE52192
:103D30004DF20F5001F0A8FE01214DF2105001F09C
:103D4000A3FE13214DF2115001F09EFE01214DF210
:103D5000125001F099FE54214DF2135001F094FEDF
:103D600001214DF2145001F08FFE82214DF21550C9
:103D700001F08AFE01214DF2165001F085FECA21A4
:103D80004DF2175001F080FE02214DF2185001F063
:103D90007BFE00214DF2195001F076FE02214DF21A
:103DA0001A5001F071FE01214DF21B5001F06CFE22
:103DB00002214DF21C5001F067FE34214DF21D50DE
:103DC00001F062FE02214DF21E5001F05DFE6721FE
:103DD0004DF21F5001F058FE02214DF2205001F02B
:103DE00053FE84214DF2215001F04EFE02214DF28E
:103DF000225001F049FEA4214DF2235001F044FE6F
:103E000002214DF2245001F03FFEB7214DF2255022
:103E100001F03AFE02214DF2265001F035FECF218D
:103E20004DF2275001F030FE02214DF2285001F0F2
:103E30002BFEDE214DF2295001F026FE02214DF22B
:103E40002A5001F021FEF2214DF22B5001F01CFE10
:103E500002214DF22C5001F017FEFE214DF22D50A3
:103E600001F012FE03214DF22E5001F00DFE102143
:103E70004DF22F5001F008FE03214DF2305001F0B9
:103E800003FE33214DF2315001F0FEFD03214DF2CE
:103E9000325001F0F9FD6D214DF2335001F0F4FD87
:103EA00000214FF4564001F0EFFD33214DF2016047
:103EB00001F0EAFD00214DF2026001F0E5FD342140
:103EC0004DF2036001F0E0FD00214DF2046001F0CD
:103ED000DBFD3A214DF2056001F0D6FD00214DF2E7
:103EE000066001F0D1FD4A214DF2076001F0CCFDE2
:103EF00000214DF2086001F0C7FD5C214DF2096020
:103F000001F0C2FD00214DF20A6001F0BDFD8121EA
:103F10004DF20B6001F0B8FD00214DF20C6001F094
:103F2000B3FDA6214DF20D6001F0AEFD00214DF272
:103F30000E6001F0A9FDE5214DF20F6001F0A4FD36
:103F400001214DF2106001F09FFD13214DF211602F
:103F500001F09AFD01214DF2126001F095FD54210E
:103F60004DF2136001F090FD01214DF2146001F05B
:103F70008BFD82214DF2156001F086FD01214DF28D
:103F8000166001F081FDCA214DF2176001F07CFD41
:103F900002214DF2186001F077FD00214DF2196009
:103FA00001F072FD02214DF21A6001F06DFD012158
:103FB0004DF21B6001F068FD02214DF21C6001F022
:103FC00063FD34214DF21D6001F05EFD02214DF2D2
:103FD0001E6001F059FD67214DF21F6001F054FD94
:103FE00002214DF2206001F04FFD84214DF221604D
:103FF00001F04AFD02214DF2226001F045FDA421AD
:104000004DF2236001F040FD02214DF2246001F0E9
:104010003BFDB7214DF2256001F036FD02214DF246
:10402000266001F031FDCF214DF2276001F02CFD1B
:1040300002214DF2286001F027FDDE214DF22960BA
:1040400001F022FD02214DF22A6001F01DFDF22156
:104050004DF22B6001F018FD02214DF22C6001F0B1
:1040600013FDFE214DF22D6001F00EFD03214DF2F6
:104070002E6001F009FD10214DF22F6001F004FDCA
:1040800003214DF2306001F0FFFC33214DF231602D
:1040900001F0FAFC03214DF2326001F0F5FC6D21D4
:1040A0004DF2336001F0F0FC5521184601F0ECFCB4
:1040B000AA21204601F0E8FC5221284601F0E4FC48
:1040C0000821304601F0E0FC0021384601F0DCFC1C
:1040D000CC21484601F0D8FC0021504601F0D4FC28
:1040E0000521404601F0D0FC70214FF4374001F02B
:1040F000CBFC70214BF2017001F0C6FC01214FF4A2
:10410000384001F0C1FC03214BF6010001F0BCFC7A
:1041100003214BF6020001F0B7FC03214BF603002C
:1041200001F0B2FC02214FF43C4001F0ADFC002153
:104130004BF6014001F0A8FC00214BF6024001F0D3
:10414000A3FCD0214FF4494001F09EFC02214CF623
:10415000011001F099FC50214CF6021001F094FC82
:1041600050214CF6031001F08FFC50214CF6041046
:1041700001F08AFC00214FF4545001F085FC5521D8
:104180004FF4685001F080FC4FF4885001F066FC59
:10419000782002F027F84FF4245001F05FFCF3E0A0
:1041A000A0F513414FF480744FF4E06940F2022A05
:1041B0004FF4274625397CD040F20775C91E79D0C7
:1041C0004FF488774FF41C56083174D0113973D0EE
:1041D000A0F5A841083970D0A0F5A8514FF4407758
:1041E00005396BD0B1F5204169D0B1F5805167D068
:1041F000A0F58A4131397CD0091F7BD04045CED112
:10420000E22001F02BFC1D2001F01CFC022001F03B
:1042100019FC042001F016FC642001F0E3FFE0200B
:1042200001F01CFC012001F00DFC0A2001F0BEFF92
:10423000E02001F013FC032001F004FC0C2001F04D
:10424000B5FF012001F00AFC0A2001F0AFFFE620D3
:1042500001F004FC2F2001F0F5FBFF2001F0F2FB40
:10426000FF2001F0EFFBB02001F0F8FB202001F06F
:10427000E9FB002001F0E6FB032001F0E3FB40F244
:104280001F3001F0DFFB012001F0DCFB40F2DF100A
:1042900001F0D8FB002001F0D5FBB42001F0DEFBDB
:1042A000042001F0CFFB40F21F4001F0CBFB0020C7
:1042B00007E076E041E1F9E1A0E275E3FEE3FEE329
:1042C000FEE301F0BFFB2E2001F0BCFB002001F05B
:1042D000B9FB002001F0B6FB002001F0B3FB002089
:1042E00001F0B0FBB62001F0B9FB022001F0AAFBFF
:1042F00001E0E6E3E6E34FF4037001F0A3FB0020E6
:1043000001F0A0FB172001F09DFB152001F09AFBA6
:10431000002001F097FB002001F094FBF02001F059
:104320009DFB032001F08EFB292001F097FBD0209C
:1043300001F094FB002001F085FBBE2001F08EFB14
:10434000052001F07FFBFE2001F07CFB012001F045
:1043500079FB002001F076FB002001F073FB0020C8
:1043600001F070FBB82001F079FB032001F06AFB3B
:10437000012001F067FBBA2001F070FB012001F081
:1043800061FB642001F07EF80020FDF721FAFF496F
:104390000120C1F8BC025846FDF7E4F921B0BDE8A0
:1043A000F08F47F6F001E52001F06EFB2146012079
:1043B00001F06AFB4946022001F066FB41F2300140
:1043C000032001F061FB0021042001F05DFB514658
:1043D000082001F059FB0021092001F055FB0021C4
:1043E0000A2001F051FB00210C2001F04DFB0021BF
:1043F0000D2001F049FB00210F2001F045FB0021B9
:10440000102001F041FB0721112001F03DFB0021AC
:10441000122001F039FB0021132001F035FB0021AF
:10442000072001F031FB41F29061102001F02CFBDC
:1044300040F22721112001F027FB9D21122001F0DD
:1044400023FB4FF4C851132001F01EFB2521292026
:1044500001F01AFB0D212B2001F016FB0721302063
:1044600001F012FB40F20331312001F00DFB03217A
:10447000322001F009FB40F20621352001F004FB57
:104480000821362001F000FB40F20641372001F000
:10449000FBFA4FF44171382001F0F6FA0721392078
:1044A00001F0F2FA40F202613C2001F0EDFA08213D
:1044B0003D2001F0E9FA0021502001F0E5FAEF215A
:1044C000512001F0E1FA0021522001F0DDFA40F222
:1044D0003F11532001F0D8FA3146602001F0D4FAA0
:1044E0000121612001F0D0FA00216A2001F0CCFA0C
:1044F0000021802001F0C8FA0021812001F0C4FAD7
:104500000021822001F0C0FA0021832001F0BCFAD2
:104510000021842001F0B8FA0021852001F0B4FACE
:104520001021902001F0B0FA4FF4C061922001F008
:10453000ABFA40F233110720FEE341F28F01EC2089
:1045400001F0A2FA41F23421EF2001F09DFA214658
:10455000012001F099FA4946022001F095FA41F252
:104560003001032001F090FA0021042001F08CFAC0
:104570005146082001F088FA0021092001F084FA50
:1045800000210A2001F080FA01210C2001F07CFAC0
:1045900000210D2001F078FA00210F2001F074FABB
:1045A0000021102001F070FA0721112001F06CFAAF
:1045B0000021122001F068FA0021132001F064FAB2
:1045C0000121072001F060FA322001F0EFFD41F2F5
:1045D0009041102001F058FA40F22721112001F0FB
:1045E00053FA322001F0E2FD8A21122001F04CFA48
:1045F000322001F0DBFD4FF4D051132001F044FADA
:104600000621292001F040FA0D212B2001F03CFA6F
:10461000322001F0CBFD0021202001F035FA0021ED
:10462000212001F031FA322001F0C0FD00213020BC
:1046300001F02AFA40F20461312001F025FA40F23B
:104640000531322001F020FA0021352001F01CFA5A
:1046500040F60941362001F017FA4FF40171372076
:1046600001F012FA40F20131382001F00DFA29462A
:10467000392001F009FA00213C2001F005FA40F64A
:104680000A213D2001F000FA322001F08FFD0021C7
:10469000502001F0F9F9EF21512001F0F5F9002146
:1046A000522001F0F1F940F23F114EE1002108469D
:1046B00001F0EAF92146012001F0E6F9494602201D
:1046C00001F0E2F941F23001032001F0DDF90021AF
:1046D000042001F0D9F95146082001F0D5F9002154
:1046E000092001F0D1F900210A2001F0CDF90121C2
:1046F0000C2001F0C9F900210D2001F0C5F90021BD
:104700000F2001F0C1F9322001F050FD40F20111FB
:10471000072001F0B9F9322001F048FD4FF486512D
:10472000102001F0B1F90721112001F0ADF939464F
:10473000122001F0A9F94FF43061132001F0A4F91F
:104740000021292001F0A0F944F210012B2001F0F2
:104750009BF90021502001F097F9EF21512001F041
:1047600093F90021522001F08FF940F23F115320BC
:1047700001F08AF93146602001F086F901216120BB
:1047800001F082F900216A2002E00000008040422E
:1047900001F07AF90021802001F076F900218120D2
:1047A00001F072F90021822001F06EF900218320CE
:1047B00001F06AF90021842001F066F900218520CA
:1047C00001F062F91021902001F05EF900219220A1
:1047D00001F05AF90121932001F056F9394695204C
:1047E00001F052F90021972001F04EF900219820A4
:1047F00001F04AF940F27311072080E341F21401FD
:10480000E72001F041F92146012001F03DF94FF484
:104810000071022001F038F941F23801032001F063
:1048200033F95146082001F02FF90021092001F049
:104830002BF900210A2001F027F900210C2001F0BA
:1048400023F900210D2001F01FF900210F2001F0B4
:104850001BF90021102001F017F90721112001F0A8
:1048600013F90021122001F00FF90021132001F0AB
:104870000BF9C82001F09AFC41F29061102001F080
:1048800003F940F22721112001F0FEF8322001F057
:104890008DFC0C21122001F0F7F8322001F086FC8B
:1048A0004FF40061132001F0EFF81121292001F0ED
:1048B000EBF80B212B2001F0E7F8322001F076FC19
:1048C0000021202001F0E0F840F23F13194621209A
:1048D00001F0DAF80021302001F0D6F84FF48374AB
:1048E0002146312001F0D0F80021322001F0CCF82F
:1048F0004FF40171352001F0C7F841F20A6136200A
:1049000001F0C2F82946372001F0BEF821463820D0
:1049100001F0BAF82946392001F0B6F840F2024118
:104920003C2001F0B1F840F60F413D2001F0ACF819
:104930000021502001F0A8F8EF21512001F0A4F847
:104940000021522001F0A0F81946532001F09CF8F4
:104950003146602001F098F80121612001F094F8BF
:1049600000216A2001F090F80021802001F08CF8ED
:104970000021812001F088F80021822001F084F8D4
:104980000021832001F080F80021842001F07CF8D0
:104990000021852001F078F81021902001F074F8B2
:1049A0004FF4C0619220FCE32146012001F06CF835
:1049B0004946022001F068F841F23001032001F07D
:1049C00063F80021042001F05FF840F2072108207D
:1049D00001F05AF80021092001F056F800210A20C0
:1049E00001F052F800210C2001F04EF800210D20BA
:1049F00001F04AF800210F2001F046F8142001F0E0
:104A0000D5FB41F2B061102001F03EF801211120E8
:104A100001F03AF80121172001F036F84FF49C71AB
:104A2000122001F031F84FF40061132001F02CF84E
:104A30000921292001F028F809212A2001F024F871
:104A40000021A42001F020F80021502001F01CF8E2
:104A5000EF21512001F018F80021522001F014F844
:104A600040F23F11532001F00FF83146602001F071
:104A70000BF80121612001F007F800216A2001F004
:104A800003F80021802000F0FFFF0021812000F0CA
:104A9000FBFF0021822000F0F7FF0021832000F0BF
:104AA000F3FF0021842000F0EFFF0021852000F0BB
:104AB000EBFF1321902000F0E7FF04E016E022E175
:104AC0001EE2E5E29AE30021922000F0DDFF0321DF
:104AD000932000F0D9FF3946952000F0D5FF40F231
:104AE0007311072000F0D0FF322008E100210720D9
:104AF00000F0CAFF322001F059FB4FF48E711220F2
:104B000000F0C2FF0121A42000F0BEFF0F21082009
:104B100000F0BAFF08210A2000F0B6FF08210D209E
:104B200000F0B2FF2B462946302000F0ADFF0721F0
:104B3000312000F0A9FF40F20361322000F0A4FF11
:104B40004D464946332000F09FFF5146342000F087
:104B50009BFF0221352000F097FF41F60F713620B0
:104B600000F092FF1946372000F08EFF0021382018
:104B700000F08AFF0021392000F086FF19463A2014
:104B800000F082FF00213B2000F07EFF07213C2047
:104B900000F07AFF00213D2000F076FF322001F086
:104BA00005FB0121072000F06FFF0121172000F015
:104BB0006BFF322001F0FAFA4FF4BD51102000F0E3
:104BC00063FF40F21721112000F05EFF4FF48F7158
:104BD000122000F059FF4FF47061132000F054FFD1
:104BE00000212A2000F050FF0A21292000F04CFF6C
:104BF0004FF49F71122000F047FF0021502000F079
:104C000043FFEF21512000F03FFF0021522000F030
:104C10003BFF40F23F11532000F036FF3146602049
:104C200000F032FF0121612000F02EFF00216A20F8
:104C300000F02AFF0021802000F026FF00218120C3
:104C400000F022FF0021822000F01EFF00218320BF
:104C500000F01AFF0021842000F016FF00218520BB
:104C600000F012FF1321902000F00EFF3946922031
:104C700000F00AFF0521932000F006FF0021952097
:104C800000F002FF0021972000F0FEFE0021982096
:104C900000F0FAFE2146012000F0F6FE294602202F
:104CA00000F0F2FE41F23801032000F0EDFE002199
:104CB000042000F0E9FE00210C2000F0E5FE0021B8
:104CC0000F2000F0E1FE0021202000F0DDFE002199
:104CD000212000F0D9FE2121072000F0D5FE14206C
:104CE00001F064FA6121072000F0CEFE142001F0EB
:104CF0005DFA40F27311072000F0C6FE142001F0A7
:104D000055FAFFF741BB0021084600F0BDFE002127
:104D1000084600F0B9FE0021084600F0B5FE00216B
:104D2000084600F0B1FE0121A42000F0ADFE1420E1
:104D300001F03CFA314600E0DDE0602000F0A4FE26
:104D400055465146082000F09FFE4FF40571302073
:104D500000F09AFE43F21571312000F095FE40F20A
:104D60000461322000F090FE40F61661332000F01E
:104D70008BFE42F21121342000F086FE4FF4A85140
:104D8000352000F081FE48F20751362000F07CFE0D
:104D900041F20741372000F077FE41F2034138200D
:104DA00000F072FE2021392000F06EFE1A219020C2
:104DB00000F06AFE0021102000F066FE072111209D
:104DC00000F062FE0021122000F05EFE00211320A0
:104DD00000F05AFE142001F0E9F94FF4E6611020CA
:104DE00000F052FE40F23711112000F04DFE142069
:104DF00001F0DCF94FF4DC71122000F045FE1420C4
:104E000001F0D4F94FF47061132000F03DFE8021D1
:104E10002A2000F039FE4821292000F035FE142018
:104E200001F0C4F92146012000F02EFE494602207F
:104E300000F02AFE41F23801032000F025FE294649
:104E4000082000F021FE00210A2000F01DFE0021B4
:104E50000C2000F019FE00210D2000F015FE30217D
:104E60000E2000F011FE0021502000F00DFEEF2179
:104E7000512000F009FE0021522000F005FE40F212
:104E80003F11532000F000FE3146602000F0FCFD91
:104E90000121612000F0F8FD00216A2000F0F4FDFE
:104EA0001121902000F0F0FD4FF4C061922000F03D
:104EB000EBFD40F20241932000F0E6FD0221942038
:104EC00000F0E2FD142001F071F90121072000F04B
:104ED000DBFD142001F06AF96121072000F0D4FD08
:104EE00040F27311072000F0CFFD0021202000F0D8
:104EF000CBFD0021212000F0C7FD222100207AE116
:104F00000021084600F0C0FD0021084600F0BCFD6D
:104F1000142001F04BF90021084600F0B5FD0021F6
:104F2000084600F0B1FD0021084600F0ADFD00216B
:104F3000084600F0A9FD0121A42000F0A5FD1420E1
:104F400001F034F93146602000F09EFD40F6060184
:104F5000082000F099FD40F203731946302000F05C
:104F600093FD0121312000F08FFD0421322000F05B
:104F70008BFD4FF48171332000F086FD39463420DB
:104F800000F082FD40F20311352000F07DFD1F216D
:104F9000362000F079FD1946372000F075FD01211B
:104FA000382000F071FD0421392000F06DFD15213D
:104FB000902000F069FD4FF48261102000F064FD44
:104FC00040F24721112000F05FFD4FF4DE71122006
:104FD00000F05AFD4FF46061132000F055FD782079
:104FE00001F0E4F82146012000F04EFD4FF400717D
:104FF000022000F049FD41F23001032000F044FDA1
:1050000008210A2000F040FD00210C2000F03CFDAA
:1050100020210E2000F038FD00210F2000F034FD8B
:105020000021202000F030FD0021212000F02CFD87
:105030003D212A2000F028FD142001F0B7F82D2191
:10504000292000F021FD0021502000F01DFD4DF22F
:10505000EF01512000F018FD0021522000F014FD56
:1050600040F23F11532000F00FFD0021612000F0BD
:105070000BFD00216A2000F007FD3946922000F068
:1050800003FD0521932000F0FFFC2146FFF7B4BB90
:105090000121002000F0F8FC0A2001F087F841F21D
:1050A0002861102000F0F0FC0E21122000F0ECFC32
:1050B00040F63921132000F0E7FC0A2001F076F8D1
:1050C0004021112000F0E0FC5021152000F0DCFC14
:1050D0000A2001F06BF81E21122000F0D5FC0A20F6
:1050E00001F064F84FF4B151102000F0CDFC42F60D
:1050F0003921132000F0C8FC0A2001F057F821469E
:10510000012000F0C1FC3946022000F0BDFC41F254
:105110003801032000F0B8FC5146082000F0B4FC30
:1051200008210A2000F0B0FC0021302000F0ACFC87
:1051300040F20241312000F0A7FC4FF4837132208D
:1051400000F0A2FC40F20351332000F09DFC4FF42C
:105150008271342000F098FC40F20131352000F0DB
:1051600093FC2946362000F08FFC40F205313720B1
:1051700000F08AFC4FF40271382000F085FC40F604
:105180000B71392000F080FC0221412000F07CFCF2
:105190003146602000F078FC0121612000F074FCB1
:1051A00000E0CDE04FF40471902000F06DFC4FF46E
:1051B0008571922000F068FC0421932000F064FCCB
:1051C0002146A02000F060FC0121072000F05CFCDB
:1051D0002121072000F058FC2321072000F054FC77
:1051E0003321072000F050FC40F23311072000F07B
:1051F0004BFC0021A02000F047FC82E53021152067
:1052000000F042FC10219A2000F03EFC20211120E9
:1052100000F03AFC43F22841102000F035FC022156
:10522000122000F031FC41F23801132000F02CFC78
:10523000282000F0BBFF1221084600F025FC2820A2
:1052400000F0B4FF43F22041102000F01DFC43F2B7
:105250003801132000F018FC462000F0A7FF0021C1
:10526000302000F011FC40F20241312000F00CFC33
:1052700040F20731322000F007FC4FF44171332037
:1052800000F002FC0421342000F0FEFB40F201415A
:10529000352000F0F9FB2946362000F0F5FB40F2FE
:1052A0000531372000F0F0FB4FF4C2631946382077
:1052B00000F0EAFB1946392000F0E6FB2146012008
:1052C00000F0E2FB3946022000F0DEFB41F2300143
:1052D000032000F0D9FB40F60801082000F0D4FBC1
:1052E00008210A2000F0D0FB3146602000F0CCFB02
:1052F0000121612000F0C8FB4FF49F71902000F065
:10530000C3FB2146922000F0BFFB2146932000F012
:10531000BBFB4FF44051A02000F0B6FB1021A320AE
:1053200000F0B2FB0121072000F0AEFB2121072095
:1053300000F0AAFB2321072000F0A6FB3321072061
:1053400000F0A2FB40F23311A0E60346012000E08A
:105350005843491EC9B2FBD2704708B54FF0D84038
:10536000B0F88000ADF80000BDF8000008BD0000F6
:105370002DE9F0433D4E002425463288824202D971
:1053800072888A4202D80020BDE8F08300F0A4F9B8
:10539000B08849F2413941F6631845F2103245F2BE
:1053A0001057484507D0A0F5D041043903D09042AA
:1053B00001D0404501D12E2005E0B84202D14FF482
:1053C000385000E0222000F049FBB088A0F51341DE
:1053D000203903D10220401EC0B2FCD2FFF7BDFF2E
:1053E000B3884345D0D00220401EC0B2FCD2FFF7A4
:1053F000B4FF0146B088C846404503D0904201D072
:10540000B8420BD10220401EC0B2FCD2FFF7A5FF6C
:105410000546C8B24FF6FF7303EA0024B088A0F532
:105420001343253B1AD0A0F58A43353B16D01B1DEC
:1054300014D0A0F53543053B10D0B3F580530DD003
:10544000404503D0904201D0B84209D1C80AC002F9
:10545000A10A40EA411040EAD52095E7084693E7C3
:10546000BDE8F0430846FCF773B900005003002084
:1054700010B500F0F3FA052000F0B4FEBDE81040CE
:10548000FFF76BBF10B50246BE2000F0E7FA05201B
:1054900000F0D8FA10460CF0A4FC9FED0C1B53EC66
:1054A000112B0CF0B1FC0CF06FFC80B200F0CAFACA
:1054B000012000F0C7FAFF2000F0C4FA002000F03D
:1054C000C1FABDE81040002000F0BCBA666666660E
:1054D00066660440F0B57F4D00232946AA79898885
:1054E00046F6040741F66314012A01D02AB11DE0F3
:1054F000B9421BD0A14202D118E0A14216D108281E
:1055000014D2DFE800F00406080A0C0E1012062080
:105510000CE007200AE0042008E0052006E0012056
:1055200004E0002002E0032000E00220A1F5134C7B
:1055300045F2103245F21056BCF1410C07D0B94289
:1055400005D0914203D0B14201D0A1427BD10828BD
:1055500012D2DFE800F0110406080A0C0E108023B6
:105560000AE0402308E0C02306E0202304E0602393
:1055700002E0A02300E0E023B14202D14FF45850F2
:1055800000E03620914205D0B14203D0A14201D0C3
:1055900043F00803B94201D143F00203194600F079
:1055A00073FAAA88A2420AD098062888698802D588
:1055B000884202D303E0884201D929806880688943
:1055C000B24241D100F04AFA002000F03BFA68896B
:1055D000401C80B200F042FA002000F033FA6889E3
:1055E000801C80B200F03AFA2888401EC0F30F20D9
:1055F00000F028FA6889C01C80B200F02FFA2878E1
:10560000401EC0B200F01EFAA88900F027FA002060
:1056100000F018FAA889401C80B200F01FFA0020A0
:1056200000F010FAA889801C80B200F017FA688890
:10563000401EC0F30F2000F005FAA889C01C80B2FC
:1056400000F00CFA22E028E000F008FA002000F058
:10565000F9F9002000F0F6F92888401EC0F30F2069
:1056600000F0F0F92878401EC0B200F0EBF9A889EC
:1056700000F0F4F9002000F0E5F9002000F0E2F974
:105680006888401EC0F30F2000F0DCF9A878BDE860
:10569000F040401EC0B200F0D5B9082812D2DFE8B1
:1056A00000F0040608110A0C0E1030230AE0102343
:1056B00008E0202306E0382304E0282302E0182332
:1056C00000E00823BDE8F040032043F4805100F0DF
:1056D000DBB90000500300202DE9F043DFF84481DE
:1056E0000C460246050AB8F804104046A1F51343DB
:1056F00040894FEA1429413B17D0A1F5A643103B3E
:1057000013D04646A1F5D047B3793688B61A761E2F
:10571000043F0ED0A1F5C857633F1ED0A1F5AA479C
:10572000103F57D0012B72D072E000F097F9284655
:1057300005E0012B00D1B2B200F090F9100A00F0A0
:1057400081F9D0B200F07EF9B8F80C0000F086F9CB
:10575000484600F077F9E0B22AE06BB300F07EF93A
:10576000284600F06FF9D0B200F06CF9B8F80000EC
:10577000401EC0F30F2000F065F998F80000401EAD
:10578000C0B200F05FF9B8F80C0000F067F94846C5
:1057900000F058F9E0B200F055F9B8F80200401EE8
:1057A000C0F30F2000F04EF998F80200401EC0B27E
:1057B000BDE8F04300F046B9B2B200F04FF9002066
:1057C00000F040F9002000F03DF9100A00F03AF92D
:1057D000D0B2D6E700F042F9284600F033F9B8F825
:1057E0000A00401C80B200F039F9D0B200F02AF96A
:1057F000B8F80C0000F032F9484600F023F9B8F888
:105800000C00401C80B200F029F9A4E7FFE7B2B217
:10581000114600F039F9B8F80C002146BDE8F04314
:1058200000F032B9500300202DE9F84F82461F46A0
:105830000C468B46580700D0012000EBD7007908B2
:1058400010FB01F0203AC0B202F0FF0900260090E0
:1058500041E00C2F10D0102F12D0182F3ED120492C
:1058600009EBC90001EB80004FF00008855D2806B8
:105870000AD51C4802880BE009EB49001A49F1E7F8
:105880001A4901EB0910EFE70A9828B91548428830
:1058900021465046FCF704F96806050E1448641CBE
:1058A000A4B24088A04219D9A4EB0B00B84209D198
:1058B0000AF101001FFA80FA0D485C460188514543
:1058C0000CD906E008F1010000F0FF08B8F1080F5C
:1058D000CDD3761CF6B200988642BAD3BDE8F88FD5
:1058E000722A0108280000200E20010882240108E5
:1058F000500300202DE9FF4F81B00027DDF838B0BC
:105900001D46924680463C46B9464FEA5B0627E074
:10591000281B401EC1B20A20FFF717FDBAFBF0F0AA
:105920000A21B0FBF1F201FB120027B9691E8C427B
:1059300001DA48B101273030C2B206FB048080B2E0
:105940005B46CDF8009006E006FB048080B25B4623
:105950002022CDF800900299FFF766FF641CE4B2A4
:10596000AC42D5D305B0BDE8F08F2DE9F84F044621
:1059700000F0FF0810190D46DDE90A761FFA80FADB
:1059800058191FFA80F94FF0000B11E0544502D36B
:10599000E819444685B24D450FD23B46294620467C
:1059A000CDF800B0FFF740FF04EB570084B2761C3F
:1059B0003278A2F120005E28E8D9BDE8F88F2DE901
:1059C000FF4F81B08046DDF83CA00E984FF00009F3
:1059D0001F4693464C460AF0010546082BE0381B4B
:1059E000401EC1B20A20FFF7B0FCBBFBF0F00A2159
:1059F000B0FBF1F201FB1200B9F1000F05D1791EE5
:105A00008C4202DA48B14FF001093030C2B206FBD5
:105A1000048080B200950E9B08E05FEA0A6006FBF6
:105A200004800E9B80B200950AD530220299FFF7C0
:105A3000FBFE641CE4B2BC42D1D305B0BDE8F08FDC
:105A40002022F3E701B5BDF80000ADF80000BDF875
:105A500000004FF0D841A1F8800008BD01B5BDF8A5
:105A60000000ADF80000BDF800004FF0D841A1F8EB
:105A70007E0008BD03484FF0D8410089A1F87E00A0
:105A800070470000500300204FF0D84222F87E0FEC
:105A9000518070477CB50121202000F059F8012089
:105AA0008DF8040000228DF8062003218DF80510E2
:105AB000074D4FF4C0648DF80700009469462846EE
:105AC000FBF744FD21462846FBF78CFD7CBD00001A
:105AD00000140240FEE7704730B50F23C27801780A
